{
  "contractName": "SimpleContract",
  "abi": [
    {
      "inputs": [],
      "name": "getValue",
      "outputs": [
        {
          "internalType": "uint256",
          "name": "",
          "type": "uint256"
        }
      ],
      "stateMutability": "pure",
      "type": "function",
      "constant": true
    }
  ],
  "bytecode": "0x608060405234801561001057600080fd5b5060b68061001f6000396000f3fe6080604052348015600f57600080fd5b506004361060285760003560e01c80632096525514602d575b600080fd5b60336047565b604051603e9190605d565b60405180910390f35b6000602a905090565b6057816076565b82525050565b6000602082019050607060008301846050565b92915050565b600081905091905056fea2646970667358221220c5211379cd19f79ff0f9592bc208decd933df2ecebb1393a4b6bf2677219a5da64736f6c63430008000033",
  "immutableReferences": {},
  "source": "// SimpleContract.sol\n\npragma solidity 0.8.0;\n\ncontract SimpleContract {\n    function getValue() public pure returns (uint256) {\n        return 42;\n    }\n}\n",
  "sourcePath": "/home/araein/work/jsonwork/blockchain/blockchain_handling/contracts/SimpleContract.sol",
  "compiler": {
    "name": "solc",
    "version": "0.8.0+commit.c7dfd78e.Emscripten.clang"
  },
  "schemaVersion": "3.4.16",
  "updatedAt": "2024-02-29T20:53:29.065Z",
  "networkType": "ethereum",
  "devdoc": {
    "kind": "dev",
    "methods": {},
    "version": 1
  },
  "userdoc": {
    "kind": "user",
    "methods": {},
    "version": 1
  }
}