{
  "contractName": "TournamentRegistry",
  "abi": [
    {
      "inputs": [
        {
          "internalType": "uint256",
          "name": "",
          "type": "uint256"
        }
      ],
      "name": "tournaments",
      "outputs": [
        {
          "internalType": "string",
          "name": "TournamentName",
          "type": "string"
        },
        {
          "internalType": "string",
          "name": "winner",
          "type": "string"
        },
        {
          "internalType": "bool",
          "name": "pending",
          "type": "bool"
        }
      ],
      "stateMutability": "view",
      "type": "function",
      "constant": true
    },
    {
      "inputs": [],
      "name": "getTournaments",
      "outputs": [
        {
          "components": [
            {
              "internalType": "string",
              "name": "TournamentName",
              "type": "string"
            },
            {
              "components": [
                {
                  "internalType": "string",
                  "name": "name",
                  "type": "string"
                },
                {
                  "internalType": "uint256",
                  "name": "elo",
                  "type": "uint256"
                }
              ],
              "internalType": "struct TournamentRegistry.Player[]",
              "name": "contenders",
              "type": "tuple[]"
            },
            {
              "components": [
                {
                  "components": [
                    {
                      "internalType": "string",
                      "name": "name",
                      "type": "string"
                    },
                    {
                      "internalType": "uint256",
                      "name": "elo",
                      "type": "uint256"
                    }
                  ],
                  "internalType": "struct TournamentRegistry.Player",
                  "name": "player1",
                  "type": "tuple"
                },
                {
                  "components": [
                    {
                      "internalType": "string",
                      "name": "name",
                      "type": "string"
                    },
                    {
                      "internalType": "uint256",
                      "name": "elo",
                      "type": "uint256"
                    }
                  ],
                  "internalType": "struct TournamentRegistry.Player",
                  "name": "player2",
                  "type": "tuple"
                },
                {
                  "internalType": "uint256",
                  "name": "scorePlayer1",
                  "type": "uint256"
                },
                {
                  "internalType": "uint256",
                  "name": "scorePlayer2",
                  "type": "uint256"
                },
                {
                  "internalType": "string",
                  "name": "round",
                  "type": "string"
                },
                {
                  "internalType": "string",
                  "name": "winner",
                  "type": "string"
                }
              ],
              "internalType": "struct TournamentRegistry.Match[]",
              "name": "matches",
              "type": "tuple[]"
            },
            {
              "internalType": "string",
              "name": "winner",
              "type": "string"
            },
            {
              "internalType": "bool",
              "name": "pending",
              "type": "bool"
            }
          ],
          "internalType": "struct TournamentRegistry.Tournament[]",
          "name": "",
          "type": "tuple[]"
        }
      ],
      "stateMutability": "view",
      "type": "function",
      "constant": true
    },
    {
      "inputs": [],
      "name": "getTournamentNames",
      "outputs": [
        {
          "internalType": "string[]",
          "name": "",
          "type": "string[]"
        }
      ],
      "stateMutability": "view",
      "type": "function",
      "constant": true
    },
    {
      "inputs": [
        {
          "internalType": "uint256",
          "name": "tournamentIndex",
          "type": "uint256"
        }
      ],
      "name": "getContenders",
      "outputs": [
        {
          "components": [
            {
              "internalType": "string",
              "name": "name",
              "type": "string"
            },
            {
              "internalType": "uint256",
              "name": "elo",
              "type": "uint256"
            }
          ],
          "internalType": "struct TournamentRegistry.Player[]",
          "name": "",
          "type": "tuple[]"
        }
      ],
      "stateMutability": "view",
      "type": "function",
      "constant": true
    },
    {
      "inputs": [
        {
          "internalType": "uint256",
          "name": "tournamentIndex",
          "type": "uint256"
        }
      ],
      "name": "getMatches",
      "outputs": [
        {
          "components": [
            {
              "components": [
                {
                  "internalType": "string",
                  "name": "name",
                  "type": "string"
                },
                {
                  "internalType": "uint256",
                  "name": "elo",
                  "type": "uint256"
                }
              ],
              "internalType": "struct TournamentRegistry.Player",
              "name": "player1",
              "type": "tuple"
            },
            {
              "components": [
                {
                  "internalType": "string",
                  "name": "name",
                  "type": "string"
                },
                {
                  "internalType": "uint256",
                  "name": "elo",
                  "type": "uint256"
                }
              ],
              "internalType": "struct TournamentRegistry.Player",
              "name": "player2",
              "type": "tuple"
            },
            {
              "internalType": "uint256",
              "name": "scorePlayer1",
              "type": "uint256"
            },
            {
              "internalType": "uint256",
              "name": "scorePlayer2",
              "type": "uint256"
            },
            {
              "internalType": "string",
              "name": "round",
              "type": "string"
            },
            {
              "internalType": "string",
              "name": "winner",
              "type": "string"
            }
          ],
          "internalType": "struct TournamentRegistry.Match[]",
          "name": "",
          "type": "tuple[]"
        }
      ],
      "stateMutability": "view",
      "type": "function",
      "constant": true
    },
    {
      "inputs": [
        {
          "internalType": "uint256",
          "name": "tournamentIndex",
          "type": "uint256"
        }
      ],
      "name": "getTournamentWinner",
      "outputs": [
        {
          "internalType": "string",
          "name": "",
          "type": "string"
        }
      ],
      "stateMutability": "view",
      "type": "function",
      "constant": true
    },
    {
      "inputs": [
        {
          "internalType": "uint256",
          "name": "tournamentIndex",
          "type": "uint256"
        }
      ],
      "name": "isTournamentPending",
      "outputs": [
        {
          "internalType": "bool",
          "name": "",
          "type": "bool"
        }
      ],
      "stateMutability": "view",
      "type": "function",
      "constant": true
    },
    {
      "inputs": [
        {
          "internalType": "uint256",
          "name": "tournamentIndex",
          "type": "uint256"
        },
        {
          "internalType": "uint256",
          "name": "matchIndex",
          "type": "uint256"
        }
      ],
      "name": "getMatchDetails",
      "outputs": [
        {
          "components": [
            {
              "internalType": "string",
              "name": "name",
              "type": "string"
            },
            {
              "internalType": "uint256",
              "name": "elo",
              "type": "uint256"
            }
          ],
          "internalType": "struct TournamentRegistry.Player",
          "name": "",
          "type": "tuple"
        },
        {
          "components": [
            {
              "internalType": "string",
              "name": "name",
              "type": "string"
            },
            {
              "internalType": "uint256",
              "name": "elo",
              "type": "uint256"
            }
          ],
          "internalType": "struct TournamentRegistry.Player",
          "name": "",
          "type": "tuple"
        },
        {
          "internalType": "uint256",
          "name": "",
          "type": "uint256"
        },
        {
          "internalType": "uint256",
          "name": "",
          "type": "uint256"
        },
        {
          "internalType": "string",
          "name": "",
          "type": "string"
        },
        {
          "internalType": "string",
          "name": "",
          "type": "string"
        }
      ],
      "stateMutability": "view",
      "type": "function",
      "constant": true
    },
    {
      "inputs": [
        {
          "internalType": "uint256",
          "name": "tournamentIndex",
          "type": "uint256"
        },
        {
          "internalType": "uint256",
          "name": "matchIndex",
          "type": "uint256"
        }
      ],
      "name": "getMatchPlayer1",
      "outputs": [
        {
          "components": [
            {
              "internalType": "string",
              "name": "name",
              "type": "string"
            },
            {
              "internalType": "uint256",
              "name": "elo",
              "type": "uint256"
            }
          ],
          "internalType": "struct TournamentRegistry.Player",
          "name": "",
          "type": "tuple"
        }
      ],
      "stateMutability": "view",
      "type": "function",
      "constant": true
    },
    {
      "inputs": [
        {
          "internalType": "uint256",
          "name": "tournamentIndex",
          "type": "uint256"
        },
        {
          "internalType": "uint256",
          "name": "matchIndex",
          "type": "uint256"
        }
      ],
      "name": "getMatchPlayer2",
      "outputs": [
        {
          "components": [
            {
              "internalType": "string",
              "name": "name",
              "type": "string"
            },
            {
              "internalType": "uint256",
              "name": "elo",
              "type": "uint256"
            }
          ],
          "internalType": "struct TournamentRegistry.Player",
          "name": "",
          "type": "tuple"
        }
      ],
      "stateMutability": "view",
      "type": "function",
      "constant": true
    },
    {
      "inputs": [
        {
          "internalType": "uint256",
          "name": "tournamentIndex",
          "type": "uint256"
        },
        {
          "internalType": "uint256",
          "name": "matchIndex",
          "type": "uint256"
        }
      ],
      "name": "getMatchScores",
      "outputs": [
        {
          "internalType": "uint256",
          "name": "",
          "type": "uint256"
        },
        {
          "internalType": "uint256",
          "name": "",
          "type": "uint256"
        }
      ],
      "stateMutability": "view",
      "type": "function",
      "constant": true
    },
    {
      "inputs": [
        {
          "internalType": "uint256",
          "name": "tournamentIndex",
          "type": "uint256"
        },
        {
          "internalType": "uint256",
          "name": "matchIndex",
          "type": "uint256"
        }
      ],
      "name": "getMatchRound",
      "outputs": [
        {
          "internalType": "string",
          "name": "",
          "type": "string"
        }
      ],
      "stateMutability": "view",
      "type": "function",
      "constant": true
    },
    {
      "inputs": [
        {
          "internalType": "uint256",
          "name": "tournamentIndex",
          "type": "uint256"
        },
        {
          "internalType": "uint256",
          "name": "matchIndex",
          "type": "uint256"
        }
      ],
      "name": "getMatchWinner",
      "outputs": [
        {
          "internalType": "string",
          "name": "",
          "type": "string"
        }
      ],
      "stateMutability": "view",
      "type": "function",
      "constant": true
    },
    {
      "inputs": [
        {
          "internalType": "uint256",
          "name": "tournamentIndex",
          "type": "uint256"
        },
        {
          "internalType": "uint256",
          "name": "playerIndex",
          "type": "uint256"
        }
      ],
      "name": "getPlayerName",
      "outputs": [
        {
          "internalType": "string",
          "name": "",
          "type": "string"
        }
      ],
      "stateMutability": "view",
      "type": "function",
      "constant": true
    },
    {
      "inputs": [
        {
          "internalType": "uint256",
          "name": "tournamentIndex",
          "type": "uint256"
        },
        {
          "internalType": "uint256",
          "name": "playerIndex",
          "type": "uint256"
        }
      ],
      "name": "getPlayerElo",
      "outputs": [
        {
          "internalType": "uint256",
          "name": "",
          "type": "uint256"
        }
      ],
      "stateMutability": "view",
      "type": "function",
      "constant": true
    },
    {
      "inputs": [
        {
          "internalType": "uint256",
          "name": "tournamentIndex",
          "type": "uint256"
        },
        {
          "internalType": "string",
          "name": "playerName",
          "type": "string"
        }
      ],
      "name": "getPlayerIndexByName",
      "outputs": [
        {
          "internalType": "uint256",
          "name": "",
          "type": "uint256"
        }
      ],
      "stateMutability": "view",
      "type": "function",
      "constant": true
    },
    {
      "inputs": [
        {
          "internalType": "string",
          "name": "tournamentName",
          "type": "string"
        }
      ],
      "name": "getTournamentIndex",
      "outputs": [
        {
          "internalType": "int256",
          "name": "",
          "type": "int256"
        }
      ],
      "stateMutability": "view",
      "type": "function",
      "constant": true
    },
    {
      "inputs": [
        {
          "internalType": "string",
          "name": "newName",
          "type": "string"
        }
      ],
      "name": "addTournament",
      "outputs": [],
      "stateMutability": "nonpayable",
      "type": "function"
    },
    {
      "inputs": [
        {
          "internalType": "uint256",
          "name": "tournamentIndex",
          "type": "uint256"
        },
        {
          "internalType": "string",
          "name": "newName",
          "type": "string"
        },
        {
          "internalType": "uint256",
          "name": "newElo",
          "type": "uint256"
        }
      ],
      "name": "addPlayer",
      "outputs": [],
      "stateMutability": "nonpayable",
      "type": "function"
    },
    {
      "inputs": [
        {
          "internalType": "uint256",
          "name": "tournamentIndex",
          "type": "uint256"
        },
        {
          "internalType": "string",
          "name": "player1Name",
          "type": "string"
        },
        {
          "internalType": "string",
          "name": "player2Name",
          "type": "string"
        },
        {
          "internalType": "uint256",
          "name": "newscorePlayer1",
          "type": "uint256"
        },
        {
          "internalType": "uint256",
          "name": "newscorePlayer2",
          "type": "uint256"
        },
        {
          "internalType": "string",
          "name": "newround",
          "type": "string"
        },
        {
          "internalType": "string",
          "name": "newwinner",
          "type": "string"
        }
      ],
      "name": "addMatch",
      "outputs": [],
      "stateMutability": "nonpayable",
      "type": "function"
    },
    {
      "inputs": [
        {
          "internalType": "uint256",
          "name": "tournamentIndex",
          "type": "uint256"
        },
        {
          "internalType": "string",
          "name": "newWinner",
          "type": "string"
        }
      ],
      "name": "setTournamentWinner",
      "outputs": [],
      "stateMutability": "nonpayable",
      "type": "function"
    },
    {
      "inputs": [
        {
          "internalType": "uint256",
          "name": "tournamentIndex",
          "type": "uint256"
        },
        {
          "internalType": "bool",
          "name": "isPending",
          "type": "bool"
        }
      ],
      "name": "setTournamentPending",
      "outputs": [],
      "stateMutability": "nonpayable",
      "type": "function"
    }
  ],
  "bytecode": "0x608060405234801561001057600080fd5b50613af1806100206000396000f3fe608060405234801561001057600080fd5b50600436106101425760003560e01c80638c82ae6c116100b8578063d66689bd1161007c578063d66689bd14610401578063ddb172781461041d578063e60d585a14610439578063f401d33a14610469578063f4baeb2b14610499578063f7f20cb3146104c957610142565b80638c82ae6c14610320578063b765052b1461033c578063b8c7055a1461036c578063c88485a01461039c578063d3ed207c146103cc57610142565b806354c7b3521161010a57806354c7b3521461020f578063673d2db9146102405780636823d7da146102705780637503e1b71461028e578063773b9fdb146102c057806382030563146102f057610142565b806309d1db381461014757806317108c70146101775780631ba9728b1461019357806323608b16146101af5780632d757c5f146101df575b600080fd5b610161600480360381019061015c9190612e90565b6104e7565b60405161016e91906135f4565b60405180910390f35b610191600480360381019061018c9190612cd7565b61060e565b005b6101ad60048036038101906101a89190612c9b565b610672565b005b6101c960048036038101906101c49190612e90565b6106d9565b6040516101d6919061367b565b60405180910390f35b6101f960048036038101906101f49190612cd7565b610824565b604051610206919061371a565b60405180910390f35b61022960048036038101906102249190612e90565b610a2b565b604051610237929190613735565b60405180910390f35b61025a60048036038101906102559190612e90565b610d7b565b604051610267919061371a565b60405180910390f35b610278610e19565b6040516102859190613536565b60405180910390f35b6102a860048036038101906102a39190612c72565b610fda565b6040516102b793929190613616565b60405180910390f35b6102da60048036038101906102d59190612e90565b611131565b6040516102e7919061367b565b60405180910390f35b61030a60048036038101906103059190612c72565b61127c565b60405161031791906135f4565b60405180910390f35b61033a60048036038101906103359190612d2b565b611359565b005b61035660048036038101906103519190612c72565b6118df565b60405161036391906135be565b60405180910390f35b61038660048036038101906103819190612c31565b611940565b60405161039391906135d9565b60405180910390f35b6103b660048036038101906103b19190612e90565b611a09565b6040516103c391906135f4565b60405180910390f35b6103e660048036038101906103e19190612e90565b611b30565b6040516103f89695949392919061369d565b60405180910390f35b61041b60048036038101906104169190612c31565b611eb2565b005b61043760048036038101906104329190612e29565b611f0f565b005b610453600480360381019061044e9190612c72565b611fa3565b6040516104609190613558565b60405180910390f35b610483600480360381019061047e9190612e90565b6122e5565b60405161049091906135f4565b60405180910390f35b6104b360048036038101906104ae9190612c72565b61240c565b6040516104c0919061357a565b60405180910390f35b6104d1612552565b6040516104de919061359c565b60405180910390f35b606060008381548110610523577f4e487b7100000000000000000000000000000000000000000000000000000000600052603260045260246000fd5b9060005260206000209060050201600201828154811061056c577f4e487b7100000000000000000000000000000000000000000000000000000000600052603260045260246000fd5b9060005260206000209060080201600701805461058890613974565b80601f01602080910402602001604051908101604052809291908181526020018280546105b490613974565b80156106015780601f106105d657610100808354040283529160200191610601565b820191906000526020600020905b8154815290600101906020018083116105e457829003601f168201915b5050505050905092915050565b8060008381548110610649577f4e487b7100000000000000000000000000000000000000000000000000000000600052603260045260246000fd5b9060005260206000209060050201600301908051906020019061066d929190612ae2565b505050565b80600083815481106106ad577f4e487b7100000000000000000000000000000000000000000000000000000000600052603260045260246000fd5b906000526020600020906005020160040160006101000a81548160ff0219169083151502179055505050565b6106e1612b68565b6000838154811061071b577f4e487b7100000000000000000000000000000000000000000000000000000000600052603260045260246000fd5b90600052602060002090600502016002018281548110610764577f4e487b7100000000000000000000000000000000000000000000000000000000600052603260045260246000fd5b906000526020600020906008020160020160405180604001604052908160008201805461079090613974565b80601f01602080910402602001604051908101604052809291908181526020018280546107bc90613974565b80156108095780601f106107de57610100808354040283529160200191610809565b820191906000526020600020905b8154815290600101906020018083116107ec57829003601f168201915b50505050508152602001600182015481525050905092915050565b60008060008481548110610861577f4e487b7100000000000000000000000000000000000000000000000000000000600052603260045260246000fd5b9060005260206000209060050201600101805480602002602001604051908101604052809291908181526020016000905b8282101561096057838290600052602060002090600202016040518060400160405290816000820180546108c590613974565b80601f01602080910402602001604051908101604052809291908181526020018280546108f190613974565b801561093e5780601f106109135761010080835404028352916020019161093e565b820191906000526020600020905b81548152906001019060200180831161092157829003601f168201915b5050505050815260200160018201548152505081526020019060010190610892565b50505050905060005b81518110156109e95783805190602001208282815181106109b3577f4e487b7100000000000000000000000000000000000000000000000000000000600052603260045260246000fd5b6020026020010151600001518051906020012014156109d6578092505050610a25565b80806109e1906139a6565b915050610969565b506040517f08c379a0000000000000000000000000000000000000000000000000000000008152600401610a1c9061365b565b60405180910390fd5b92915050565b6000806000808581548110610a69577f4e487b7100000000000000000000000000000000000000000000000000000000600052603260045260246000fd5b90600052602060002090600502016002018481548110610ab2577f4e487b7100000000000000000000000000000000000000000000000000000000600052603260045260246000fd5b90600052602060002090600802016040518060c001604052908160008201604051806040016040529081600082018054610aeb90613974565b80601f0160208091040260200160405190810160405280929190818152602001828054610b1790613974565b8015610b645780601f10610b3957610100808354040283529160200191610b64565b820191906000526020600020905b815481529060010190602001808311610b4757829003601f168201915b50505050508152602001600182015481525050815260200160028201604051806040016040529081600082018054610b9b90613974565b80601f0160208091040260200160405190810160405280929190818152602001828054610bc790613974565b8015610c145780601f10610be957610100808354040283529160200191610c14565b820191906000526020600020905b815481529060010190602001808311610bf757829003601f168201915b5050505050815260200160018201548152505081526020016004820154815260200160058201548152602001600682018054610c4f90613974565b80601f0160208091040260200160405190810160405280929190818152602001828054610c7b90613974565b8015610cc85780601f10610c9d57610100808354040283529160200191610cc8565b820191906000526020600020905b815481529060010190602001808311610cab57829003601f168201915b50505050508152602001600782018054610ce190613974565b80601f0160208091040260200160405190810160405280929190818152602001828054610d0d90613974565b8015610d5a5780601f10610d2f57610100808354040283529160200191610d5a565b820191906000526020600020905b815481529060010190602001808311610d3d57829003601f168201915b50505050508152505090508060400151816060015192509250509250929050565b6000808381548110610db6577f4e487b7100000000000000000000000000000000000000000000000000000000600052603260045260246000fd5b90600052602060002090600502016001018281548110610dff577f4e487b7100000000000000000000000000000000000000000000000000000000600052603260045260246000fd5b906000526020600020906002020160010154905092915050565b60606000808054905067ffffffffffffffff811115610e61577f4e487b7100000000000000000000000000000000000000000000000000000000600052604160045260246000fd5b604051908082528060200260200182016040528015610e9457816020015b6060815260200190600190039081610e7f5790505b50905060005b600080549050811015610fd25760008181548110610ee1577f4e487b7100000000000000000000000000000000000000000000000000000000600052603260045260246000fd5b90600052602060002090600502016000018054610efd90613974565b80601f0160208091040260200160405190810160405280929190818152602001828054610f2990613974565b8015610f765780601f10610f4b57610100808354040283529160200191610f76565b820191906000526020600020905b815481529060010190602001808311610f5957829003601f168201915b5050505050828281518110610fb4577f4e487b7100000000000000000000000000000000000000000000000000000000600052603260045260246000fd5b60200260200101819052508080610fca906139a6565b915050610e9a565b508091505090565b60008181548110610fea57600080fd5b906000526020600020906005020160009150905080600001805461100d90613974565b80601f016020809104026020016040519081016040528092919081815260200182805461103990613974565b80156110865780601f1061105b57610100808354040283529160200191611086565b820191906000526020600020905b81548152906001019060200180831161106957829003601f168201915b50505050509080600301805461109b90613974565b80601f01602080910402602001604051908101604052809291908181526020018280546110c790613974565b80156111145780601f106110e957610100808354040283529160200191611114565b820191906000526020600020905b8154815290600101906020018083116110f757829003601f168201915b5050505050908060040160009054906101000a900460ff16905083565b611139612b68565b60008381548110611173577f4e487b7100000000000000000000000000000000000000000000000000000000600052603260045260246000fd5b906000526020600020906005020160020182815481106111bc577f4e487b7100000000000000000000000000000000000000000000000000000000600052603260045260246000fd5b90600052602060002090600802016000016040518060400160405290816000820180546111e890613974565b80601f016020809104026020016040519081016040528092919081815260200182805461121490613974565b80156112615780601f1061123657610100808354040283529160200191611261565b820191906000526020600020905b81548152906001019060200180831161124457829003601f168201915b50505050508152602001600182015481525050905092915050565b6060600082815481106112b8577f4e487b7100000000000000000000000000000000000000000000000000000000600052603260045260246000fd5b906000526020600020906005020160030180546112d490613974565b80601f016020809104026020016040519081016040528092919081815260200182805461130090613974565b801561134d5780601f106113225761010080835404028352916020019161134d565b820191906000526020600020905b81548152906001019060200180831161133057829003601f168201915b50505050509050919050565b611361612b68565b611369612b68565b60008060005b60008c815481106113a9577f4e487b7100000000000000000000000000000000000000000000000000000000600052603260045260246000fd5b9060005260206000209060050201600101805490508110156117c2578a8051906020012060008d81548110611407577f4e487b7100000000000000000000000000000000000000000000000000000000600052603260045260246000fd5b90600052602060002090600502016001018281548110611450577f4e487b7100000000000000000000000000000000000000000000000000000000600052603260045260246000fd5b906000526020600020906002020160000160405161146e919061351f565b604051809103902014156115ba5760008c815481106114b6577f4e487b7100000000000000000000000000000000000000000000000000000000600052603260045260246000fd5b906000526020600020906005020160010181815481106114ff577f4e487b7100000000000000000000000000000000000000000000000000000000600052603260045260246000fd5b906000526020600020906002020160405180604001604052908160008201805461152890613974565b80601f016020809104026020016040519081016040528092919081815260200182805461155490613974565b80156115a15780601f10611576576101008083540402835291602001916115a1565b820191906000526020600020905b81548152906001019060200180831161158457829003601f168201915b5050505050815260200160018201548152505094508092505b898051906020012060008d815481106115fc577f4e487b7100000000000000000000000000000000000000000000000000000000600052603260045260246000fd5b90600052602060002090600502016001018281548110611645577f4e487b7100000000000000000000000000000000000000000000000000000000600052603260045260246000fd5b9060005260206000209060020201600001604051611663919061351f565b604051809103902014156117af5760008c815481106116ab577f4e487b7100000000000000000000000000000000000000000000000000000000600052603260045260246000fd5b906000526020600020906005020160010181815481106116f4577f4e487b7100000000000000000000000000000000000000000000000000000000600052603260045260246000fd5b906000526020600020906002020160405180604001604052908160008201805461171d90613974565b80601f016020809104026020016040519081016040528092919081815260200182805461174990613974565b80156117965780601f1061176b57610100808354040283529160200191611796565b820191906000526020600020905b81548152906001019060200180831161177957829003601f168201915b5050505050815260200160018201548152505093508091505b80806117ba906139a6565b91505061136f565b506000808c815481106117fe577f4e487b7100000000000000000000000000000000000000000000000000000000600052603260045260246000fd5b9060005260206000209060050201600201600181600181540180825580915050039060005260206000209060080201905084816000016000820151816000019080519060200190611850929190612ae2565b50602082015181600101559050508381600201600082015181600001908051906020019061187f929190612ae2565b5060208201518160010155905050888160040181905550878160050181905550868160060190805190602001906118b7929190612ae2565b50858160070190805190602001906118d0929190612ae2565b50505050505050505050505050565b600080828154811061191a577f4e487b7100000000000000000000000000000000000000000000000000000000600052603260045260246000fd5b906000526020600020906005020160040160009054906101000a900460ff169050919050565b600080600090505b6000805490508110156119df57828051906020012060008281548110611997577f4e487b7100000000000000000000000000000000000000000000000000000000600052603260045260246000fd5b90600052602060002090600502016000016040516119b5919061351f565b604051809103902014156119cc5780915050611a04565b80806119d7906139a6565b915050611948565b507fffffffffffffffffffffffffffffffffffffffffffffffffffffffffffffffff90505b919050565b606060008381548110611a45577f4e487b7100000000000000000000000000000000000000000000000000000000600052603260045260246000fd5b90600052602060002090600502016001018281548110611a8e577f4e487b7100000000000000000000000000000000000000000000000000000000600052603260045260246000fd5b90600052602060002090600202016000018054611aaa90613974565b80601f0160208091040260200160405190810160405280929190818152602001828054611ad690613974565b8015611b235780601f10611af857610100808354040283529160200191611b23565b820191906000526020600020905b815481529060010190602001808311611b0657829003601f168201915b5050505050905092915050565b611b38612b68565b611b40612b68565b6000806060806000808981548110611b81577f4e487b7100000000000000000000000000000000000000000000000000000000600052603260045260246000fd5b90600052602060002090600502016002018881548110611bca577f4e487b7100000000000000000000000000000000000000000000000000000000600052603260045260246000fd5b90600052602060002090600802016040518060c001604052908160008201604051806040016040529081600082018054611c0390613974565b80601f0160208091040260200160405190810160405280929190818152602001828054611c2f90613974565b8015611c7c5780601f10611c5157610100808354040283529160200191611c7c565b820191906000526020600020905b815481529060010190602001808311611c5f57829003601f168201915b50505050508152602001600182015481525050815260200160028201604051806040016040529081600082018054611cb390613974565b80601f0160208091040260200160405190810160405280929190818152602001828054611cdf90613974565b8015611d2c5780601f10611d0157610100808354040283529160200191611d2c565b820191906000526020600020905b815481529060010190602001808311611d0f57829003601f168201915b5050505050815260200160018201548152505081526020016004820154815260200160058201548152602001600682018054611d6790613974565b80601f0160208091040260200160405190810160405280929190818152602001828054611d9390613974565b8015611de05780601f10611db557610100808354040283529160200191611de0565b820191906000526020600020905b815481529060010190602001808311611dc357829003601f168201915b50505050508152602001600782018054611df990613974565b80601f0160208091040260200160405190810160405280929190818152602001828054611e2590613974565b8015611e725780601f10611e4757610100808354040283529160200191611e72565b820191906000526020600020905b815481529060010190602001808311611e5557829003601f168201915b5050505050815250509050806000015181602001518260400151836060015184608001518560a00151965096509650965096509650509295509295509295565b600080600181600181540180825580915050039060005260206000209060050201905081816000019080519060200190611eed929190612ae2565b5060018160040160006101000a81548160ff0219169083151502179055505050565b6000808481548110611f4a577f4e487b7100000000000000000000000000000000000000000000000000000000600052603260045260246000fd5b9060005260206000209060050201600101600181600181540180825580915050039060005260206000209060020201905082816000019080519060200190611f93929190612ae2565b5081816001018190555050505050565b606060008281548110611fdf577f4e487b7100000000000000000000000000000000000000000000000000000000600052603260045260246000fd5b9060005260206000209060050201600201805480602002602001604051908101604052809291908181526020016000905b828210156122da57838290600052602060002090600802016040518060c00160405290816000820160405180604001604052908160008201805461205390613974565b80601f016020809104026020016040519081016040528092919081815260200182805461207f90613974565b80156120cc5780601f106120a1576101008083540402835291602001916120cc565b820191906000526020600020905b8154815290600101906020018083116120af57829003601f168201915b5050505050815260200160018201548152505081526020016002820160405180604001604052908160008201805461210390613974565b80601f016020809104026020016040519081016040528092919081815260200182805461212f90613974565b801561217c5780601f106121515761010080835404028352916020019161217c565b820191906000526020600020905b81548152906001019060200180831161215f57829003601f168201915b50505050508152602001600182015481525050815260200160048201548152602001600582015481526020016006820180546121b790613974565b80601f01602080910402602001604051908101604052809291908181526020018280546121e390613974565b80156122305780601f1061220557610100808354040283529160200191612230565b820191906000526020600020905b81548152906001019060200180831161221357829003601f168201915b5050505050815260200160078201805461224990613974565b80601f016020809104026020016040519081016040528092919081815260200182805461227590613974565b80156122c25780601f10612297576101008083540402835291602001916122c2565b820191906000526020600020905b8154815290600101906020018083116122a557829003601f168201915b50505050508152505081526020019060010190612010565b505050509050919050565b606060008381548110612321577f4e487b7100000000000000000000000000000000000000000000000000000000600052603260045260246000fd5b9060005260206000209060050201600201828154811061236a577f4e487b7100000000000000000000000000000000000000000000000000000000600052603260045260246000fd5b9060005260206000209060080201600601805461238690613974565b80601f01602080910402602001604051908101604052809291908181526020018280546123b290613974565b80156123ff5780601f106123d4576101008083540402835291602001916123ff565b820191906000526020600020905b8154815290600101906020018083116123e257829003601f168201915b5050505050905092915050565b606060008281548110612448577f4e487b7100000000000000000000000000000000000000000000000000000000600052603260045260246000fd5b9060005260206000209060050201600101805480602002602001604051908101604052809291908181526020016000905b8282101561254757838290600052602060002090600202016040518060400160405290816000820180546124ac90613974565b80601f01602080910402602001604051908101604052809291908181526020018280546124d890613974565b80156125255780601f106124fa57610100808354040283529160200191612525565b820191906000526020600020905b81548152906001019060200180831161250857829003601f168201915b5050505050815260200160018201548152505081526020019060010190612479565b505050509050919050565b60606000805480602002602001604051908101604052809291908181526020016000905b82821015612ad957838290600052602060002090600502016040518060a00160405290816000820180546125a990613974565b80601f01602080910402602001604051908101604052809291908181526020018280546125d590613974565b80156126225780601f106125f757610100808354040283529160200191612622565b820191906000526020600020905b81548152906001019060200180831161260557829003601f168201915b5050505050815260200160018201805480602002602001604051908101604052809291908181526020016000905b8282101561271e578382906000526020600020906002020160405180604001604052908160008201805461268390613974565b80601f01602080910402602001604051908101604052809291908181526020018280546126af90613974565b80156126fc5780601f106126d1576101008083540402835291602001916126fc565b820191906000526020600020905b8154815290600101906020018083116126df57829003601f168201915b5050505050815260200160018201548152505081526020019060010190612650565b50505050815260200160028201805480602002602001604051908101604052809291908181526020016000905b82821015612a1557838290600052602060002090600802016040518060c00160405290816000820160405180604001604052908160008201805461278e90613974565b80601f01602080910402602001604051908101604052809291908181526020018280546127ba90613974565b80156128075780601f106127dc57610100808354040283529160200191612807565b820191906000526020600020905b8154815290600101906020018083116127ea57829003601f168201915b5050505050815260200160018201548152505081526020016002820160405180604001604052908160008201805461283e90613974565b80601f016020809104026020016040519081016040528092919081815260200182805461286a90613974565b80156128b75780601f1061288c576101008083540402835291602001916128b7565b820191906000526020600020905b81548152906001019060200180831161289a57829003601f168201915b50505050508152602001600182015481525050815260200160048201548152602001600582015481526020016006820180546128f290613974565b80601f016020809104026020016040519081016040528092919081815260200182805461291e90613974565b801561296b5780601f106129405761010080835404028352916020019161296b565b820191906000526020600020905b81548152906001019060200180831161294e57829003601f168201915b5050505050815260200160078201805461298490613974565b80601f01602080910402602001604051908101604052809291908181526020018280546129b090613974565b80156129fd5780601f106129d2576101008083540402835291602001916129fd565b820191906000526020600020905b8154815290600101906020018083116129e057829003601f168201915b5050505050815250508152602001906001019061274b565b505050508152602001600382018054612a2d90613974565b80601f0160208091040260200160405190810160405280929190818152602001828054612a5990613974565b8015612aa65780601f10612a7b57610100808354040283529160200191612aa6565b820191906000526020600020905b815481529060010190602001808311612a8957829003601f168201915b505050505081526020016004820160009054906101000a900460ff16151515158152505081526020019060010190612576565b50505050905090565b828054612aee90613974565b90600052602060002090601f016020900481019282612b105760008555612b57565b82601f10612b2957805160ff1916838001178555612b57565b82800160010185558215612b57579182015b82811115612b56578251825591602001919060010190612b3b565b5b509050612b649190612b82565b5090565b604051806040016040528060608152602001600081525090565b5b80821115612b9b576000816000905550600101612b83565b5090565b6000612bb2612bad8461378f565b61375e565b905082815260208101848484011115612bca57600080fd5b612bd5848285613932565b509392505050565b600081359050612bec81613a8d565b92915050565b600082601f830112612c0357600080fd5b8135612c13848260208601612b9f565b91505092915050565b600081359050612c2b81613aa4565b92915050565b600060208284031215612c4357600080fd5b600082013567ffffffffffffffff811115612c5d57600080fd5b612c6984828501612bf2565b91505092915050565b600060208284031215612c8457600080fd5b6000612c9284828501612c1c565b91505092915050565b60008060408385031215612cae57600080fd5b6000612cbc85828601612c1c565b9250506020612ccd85828601612bdd565b9150509250929050565b60008060408385031215612cea57600080fd5b6000612cf885828601612c1c565b925050602083013567ffffffffffffffff811115612d1557600080fd5b612d2185828601612bf2565b9150509250929050565b600080600080600080600060e0888a031215612d4657600080fd5b6000612d548a828b01612c1c565b975050602088013567ffffffffffffffff811115612d7157600080fd5b612d7d8a828b01612bf2565b965050604088013567ffffffffffffffff811115612d9a57600080fd5b612da68a828b01612bf2565b9550506060612db78a828b01612c1c565b9450506080612dc88a828b01612c1c565b93505060a088013567ffffffffffffffff811115612de557600080fd5b612df18a828b01612bf2565b92505060c088013567ffffffffffffffff811115612e0e57600080fd5b612e1a8a828b01612bf2565b91505092959891949750929550565b600080600060608486031215612e3e57600080fd5b6000612e4c86828701612c1c565b935050602084013567ffffffffffffffff811115612e6957600080fd5b612e7586828701612bf2565b9250506040612e8686828701612c1c565b9150509250925092565b60008060408385031215612ea357600080fd5b6000612eb185828601612c1c565b9250506020612ec285828601612c1c565b9150509250929050565b6000612ed88383613286565b905092915050565b6000612eec838361335e565b905092915050565b6000612f0083836133fc565b905092915050565b6000612f148383613476565b905092915050565b6000612f2782613814565b612f31818561387f565b935083602082028501612f43856137bf565b8060005b85811015612f7f5784840389528151612f608582612ecc565b9450612f6b8361384b565b925060208a01995050600181019050612f47565b50829750879550505050505092915050565b6000612f9c8261381f565b612fa68185613890565b935083602082028501612fb8856137cf565b8060005b85811015612ff45784840389528151612fd58582612ee0565b9450612fe083613858565b925060208a01995050600181019050612fbc565b50829750879550505050505092915050565b60006130118261381f565b61301b81856138a1565b93508360208202850161302d856137cf565b8060005b85811015613069578484038952815161304a8582612ee0565b945061305583613858565b925060208a01995050600181019050613031565b50829750879550505050505092915050565b60006130868261382a565b61309081856138b2565b9350836020820285016130a2856137df565b8060005b858110156130de57848403895281516130bf8582612ef4565b94506130ca83613865565b925060208a019950506001810190506130a6565b50829750879550505050505092915050565b60006130fb8261382a565b61310581856138c3565b935083602082028501613117856137df565b8060005b8581101561315357848403895281516131348582612ef4565b945061313f83613865565b925060208a0199505060018101905061311b565b50829750879550505050505092915050565b600061317082613835565b61317a81856138d4565b93508360208202850161318c856137ef565b8060005b858110156131c857848403895281516131a98582612f08565b94506131b483613872565b925060208a01995050600181019050613190565b50829750879550505050505092915050565b6131e381613912565b82525050565b6131f281613912565b82525050565b6000815461320581613974565b61320f81866138e5565b9450600182166000811461322a576001811461323b5761326e565b60ff1983168652818601935061326e565b613244856137ff565b60005b8381101561326657815481890152600182019150602081019050613247565b838801955050505b50505092915050565b6132808161391e565b82525050565b600061329182613840565b61329b81856138f0565b93506132ab818560208601613941565b6132b481613a7c565b840191505092915050565b60006132ca82613840565b6132d48185613901565b93506132e4818560208601613941565b6132ed81613a7c565b840191505092915050565b6000613305602283613901565b91507f506c61796572206e6f7420666f756e6420696e2074686520746f75726e616d6560008301527f6e740000000000000000000000000000000000000000000000000000000000006020830152604082019050919050565b600060c083016000830151848203600086015261337b82826133fc565b9150506020830151848203602086015261339582826133fc565b91505060408301516133aa6040860182613501565b5060608301516133bd6060860182613501565b50608083015184820360808601526133d58282613286565b91505060a083015184820360a08601526133ef8282613286565b9150508091505092915050565b600060408301600083015184820360008601526134198282613286565b915050602083015161342e6020860182613501565b508091505092915050565b600060408301600083015184820360008601526134568282613286565b915050602083015161346b6020860182613501565b508091505092915050565b600060a08301600083015184820360008601526134938282613286565b915050602083015184820360208601526134ad828261307b565b915050604083015184820360408601526134c78282612f91565b915050606083015184820360608601526134e18282613286565b91505060808301516134f660808601826131da565b508091505092915050565b61350a81613928565b82525050565b61351981613928565b82525050565b600061352b82846131f8565b915081905092915050565b600060208201905081810360008301526135508184612f1c565b905092915050565b600060208201905081810360008301526135728184613006565b905092915050565b6000602082019050818103600083015261359481846130f0565b905092915050565b600060208201905081810360008301526135b68184613165565b905092915050565b60006020820190506135d360008301846131e9565b92915050565b60006020820190506135ee6000830184613277565b92915050565b6000602082019050818103600083015261360e81846132bf565b905092915050565b6000606082019050818103600083015261363081866132bf565b9050818103602083015261364481856132bf565b905061365360408301846131e9565b949350505050565b60006020820190508181036000830152613674816132f8565b9050919050565b600060208201905081810360008301526136958184613439565b905092915050565b600060c08201905081810360008301526136b78189613439565b905081810360208301526136cb8188613439565b90506136da6040830187613510565b6136e76060830186613510565b81810360808301526136f981856132bf565b905081810360a083015261370d81846132bf565b9050979650505050505050565b600060208201905061372f6000830184613510565b92915050565b600060408201905061374a6000830185613510565b6137576020830184613510565b9392505050565b6000604051905081810181811067ffffffffffffffff8211171561378557613784613a4d565b5b8060405250919050565b600067ffffffffffffffff8211156137aa576137a9613a4d565b5b601f19601f8301169050602081019050919050565b6000819050602082019050919050565b6000819050602082019050919050565b6000819050602082019050919050565b6000819050602082019050919050565b60008190508160005260206000209050919050565b600081519050919050565b600081519050919050565b600081519050919050565b600081519050919050565b600081519050919050565b6000602082019050919050565b6000602082019050919050565b6000602082019050919050565b6000602082019050919050565b600082825260208201905092915050565b600082825260208201905092915050565b600082825260208201905092915050565b600082825260208201905092915050565b600082825260208201905092915050565b600082825260208201905092915050565b600081905092915050565b600082825260208201905092915050565b600082825260208201905092915050565b60008115159050919050565b6000819050919050565b6000819050919050565b82818337600083830152505050565b60005b8381101561395f578082015181840152602081019050613944565b8381111561396e576000848401525b50505050565b6000600282049050600182168061398c57607f821691505b602082108114156139a05761399f613a1e565b5b50919050565b60006139b182613928565b91507fffffffffffffffffffffffffffffffffffffffffffffffffffffffffffffffff8214156139e4576139e36139ef565b5b600182019050919050565b7f4e487b7100000000000000000000000000000000000000000000000000000000600052601160045260246000fd5b7f4e487b7100000000000000000000000000000000000000000000000000000000600052602260045260246000fd5b7f4e487b7100000000000000000000000000000000000000000000000000000000600052604160045260246000fd5b6000601f19601f8301169050919050565b613a9681613912565b8114613aa157600080fd5b50565b613aad81613928565b8114613ab857600080fd5b5056fea2646970667358221220522174e4a4aa124d27af18cbfb8fb27aeeaeffa18b70fc36cf49d8b831c67ce964736f6c63430008000033",
  "immutableReferences": {},
  "source": "// SPDX-License-Identifier: MIT\n\npragma solidity ^0.8.0;\n\ncontract TournamentRegistry {\n\n    // Structure de donnes pour reprsenter un joueur\n    struct Player {\n        string name;\n        uint elo;\n    }\n\n    // Structure de donnes pour reprsenter un match\n    struct Match {\n        Player player1;\n        Player player2;\n        uint scorePlayer1;\n        uint scorePlayer2;\n        string round;\n        string winner;\n    }\n\n\n    struct Tournament {\n        string TournamentName;\n        Player[] contenders; //liste des joueurs\n        Match[] matches; //liste des matchs dans l'ordre\n        string winner;\n        bool pending;\n    }\n\n// liste de tous les tournois\n    Tournament[] public tournaments;\n\n\n//Tournament getters\n\n    // Get all tournaments\n    function getTournaments() public view returns (Tournament[] memory) {\n        return tournaments;\n    }\n\n    function getTournamentNames() public view returns (string[] memory) {\n        string[] memory names = new string[](tournaments.length);\n        for (uint i = 0; i < tournaments.length; i++) {\n            names[i] = tournaments[i].TournamentName;\n        }\n        return names;\n    }\n\n    // Get all contenders for a given tournament\n    function getContenders(uint tournamentIndex) public view returns (Player[] memory) {\n        return tournaments[tournamentIndex].contenders;\n    }\n\n    // Get all matches for a given tournament\n    function getMatches(uint tournamentIndex) public view returns (Match[] memory) {\n        return tournaments[tournamentIndex].matches;\n    }\n\n    // Get the winner of a given tournament\n    function getTournamentWinner(uint tournamentIndex) public view returns (string memory) {\n        return tournaments[tournamentIndex].winner;\n    }\n\n    // Get the pending status of a given tournament\n    function isTournamentPending(uint tournamentIndex) public view returns (bool) {\n        return tournaments[tournamentIndex].pending;\n    }\n\n\n    //Matches getters\n\n\n    // Get the details of a match by its index\n    function getMatchDetails(uint tournamentIndex, uint matchIndex) public view returns (Player memory, Player memory, uint, uint, string memory, string memory) {\n        Match memory matchDetails = tournaments[tournamentIndex].matches[matchIndex];\n        return (matchDetails.player1, matchDetails.player2, matchDetails.scorePlayer1, matchDetails.scorePlayer2, matchDetails.round, matchDetails.winner);\n    }\n\n    // Get the player1 details of a match by its index\n    function getMatchPlayer1(uint tournamentIndex, uint matchIndex) public view returns (Player memory) {\n        return tournaments[tournamentIndex].matches[matchIndex].player1;\n    }\n\n    // Get the player2 details of a match by its index\n    function getMatchPlayer2(uint tournamentIndex, uint matchIndex) public view returns (Player memory) {\n        return tournaments[tournamentIndex].matches[matchIndex].player2;\n    }\n\n    // Get the scores of player1 and player2 in a match by its index\n    function getMatchScores(uint tournamentIndex, uint matchIndex) public view returns (uint, uint) {\n        Match memory matchDetails = tournaments[tournamentIndex].matches[matchIndex];\n        return (matchDetails.scorePlayer1, matchDetails.scorePlayer2);\n    }\n\n    // Get the round of a match by its index\n    function getMatchRound(uint tournamentIndex, uint matchIndex) public view returns (string memory) {\n        return tournaments[tournamentIndex].matches[matchIndex].round;\n    }\n\n    // Get the winner of a match by its index\n    function getMatchWinner(uint tournamentIndex, uint matchIndex) public view returns (string memory) {\n        return tournaments[tournamentIndex].matches[matchIndex].winner;\n    }\n\n\n    //Player getters\n\n    // Get player name by tournament index and player index\n    function getPlayerName(uint tournamentIndex, uint playerIndex) public view returns (string memory) {\n        return tournaments[tournamentIndex].contenders[playerIndex].name;\n    }\n\n    // Get player elo by tournament index and player index\n    function getPlayerElo(uint tournamentIndex, uint playerIndex) public view returns (uint) {\n        return tournaments[tournamentIndex].contenders[playerIndex].elo;\n    }\n\n    // Get player index by name in a given tournament\n    function getPlayerIndexByName(uint tournamentIndex, string memory playerName) public view returns (uint) {\n        Player[] memory players = tournaments[tournamentIndex].contenders;\n        for (uint i = 0; i < players.length; i++) {\n            if (keccak256(bytes(players[i].name)) == keccak256(bytes(playerName))) {\n                return i;\n            }\n        }\n        revert(\"Player not found in the tournament\");\n    }\n\n  \n\n    function getTournamentIndex(string memory tournamentName) public view returns (int) {\n        for (uint i = 0; i < tournaments.length; i++) {\n            if (keccak256(bytes(tournaments[i].TournamentName)) == keccak256(bytes(tournamentName))) {\n                return int(i);\n            }\n        }\n        return -1;\n    }\n\n  //  SETTERS\n\n    // Setter for adding a new tournament\n\n    function addTournament(string memory newName) public {\n        Tournament storage p = tournaments.push();\n        p.TournamentName = newName;\n        p.pending = true;\n    }\n\n    function addPlayer(uint tournamentIndex, string memory newName, uint newElo) public {\n        Player storage p = tournaments[tournamentIndex].contenders.push();\n        p.name = newName;\n        p.elo = newElo;\n    }\n\n    // // Setter for adding a new match\n    function addMatch(uint tournamentIndex, string memory player1Name, string memory player2Name, uint newscorePlayer1, uint newscorePlayer2, string memory newround, string memory newwinner) public {\n        Player memory player1;\n        Player memory player2;\n        uint player1Index;\n        uint player2Index;\n        for (uint i = 0; i < tournaments[tournamentIndex].contenders.length; i++) {\n            if (keccak256(bytes(tournaments[tournamentIndex].contenders[i].name)) == keccak256(bytes(player1Name))) {\n                player1 = tournaments[tournamentIndex].contenders[i];\n                player1Index = i;\n            }\n            if (keccak256(bytes(tournaments[tournamentIndex].contenders[i].name)) == keccak256(bytes(player2Name))) {\n                player2 = tournaments[tournamentIndex].contenders[i];\n                player2Index = i;\n            }\n        }\n\n        Match storage newMatch = tournaments[tournamentIndex].matches.push();\n        newMatch.player1 = player1;\n        newMatch.player2 = player2;\n        newMatch.scorePlayer1 = newscorePlayer1;\n        newMatch.scorePlayer2 = newscorePlayer2;\n        newMatch.round = newround;\n        newMatch.winner = newwinner;\n    }\n\n\n\n    // Setter for updating tournament winner\n    function setTournamentWinner(uint tournamentIndex, string memory newWinner) public {\n        tournaments[tournamentIndex].winner = newWinner;\n    }\n\n    // Setter for updating tournament pending status\n    function setTournamentPending(uint tournamentIndex, bool isPending) public {\n        tournaments[tournamentIndex].pending = isPending;\n    }\n\n}\n",
  "sourcePath": "/app/blockchain/contracts/TournamentRegistry.sol",
  "compiler": {
    "name": "solc",
    "version": "0.8.0+commit.c7dfd78e.Emscripten.clang"
  },
  "schemaVersion": "3.4.16",
  "updatedAt": "2024-04-03T10:23:46.697Z",
  "networkType": "ethereum",
  "devdoc": {
    "kind": "dev",
    "methods": {},
    "version": 1
  },
  "userdoc": {
    "kind": "user",
    "methods": {},
    "version": 1
  }
}