{
  "contractName": "TournamentRegistry",
  "abi": [
    {
      "inputs": [
        {
          "internalType": "uint256",
          "name": "",
          "type": "uint256"
        }
      ],
      "name": "tournaments",
      "outputs": [
        {
          "internalType": "string",
          "name": "TournamentName",
          "type": "string"
        },
        {
          "internalType": "string",
          "name": "winner",
          "type": "string"
        },
        {
          "internalType": "bool",
          "name": "pending",
          "type": "bool"
        },
        {
          "internalType": "bool",
          "name": "started",
          "type": "bool"
        }
      ],
      "stateMutability": "view",
      "type": "function",
      "constant": true
    },
    {
      "inputs": [],
      "name": "getTournaments",
      "outputs": [
        {
          "components": [
            {
              "internalType": "string",
              "name": "TournamentName",
              "type": "string"
            },
            {
              "components": [
                {
                  "internalType": "string",
                  "name": "name",
                  "type": "string"
                },
                {
                  "internalType": "uint256",
                  "name": "elo",
                  "type": "uint256"
                }
              ],
              "internalType": "struct TournamentRegistry.Player[]",
              "name": "contenders",
              "type": "tuple[]"
            },
            {
              "components": [
                {
                  "components": [
                    {
                      "internalType": "string",
                      "name": "name",
                      "type": "string"
                    },
                    {
                      "internalType": "uint256",
                      "name": "elo",
                      "type": "uint256"
                    }
                  ],
                  "internalType": "struct TournamentRegistry.Player",
                  "name": "player1",
                  "type": "tuple"
                },
                {
                  "components": [
                    {
                      "internalType": "string",
                      "name": "name",
                      "type": "string"
                    },
                    {
                      "internalType": "uint256",
                      "name": "elo",
                      "type": "uint256"
                    }
                  ],
                  "internalType": "struct TournamentRegistry.Player",
                  "name": "player2",
                  "type": "tuple"
                },
                {
                  "internalType": "uint256",
                  "name": "scorePlayer1",
                  "type": "uint256"
                },
                {
                  "internalType": "uint256",
                  "name": "scorePlayer2",
                  "type": "uint256"
                },
                {
                  "internalType": "string",
                  "name": "round",
                  "type": "string"
                },
                {
                  "internalType": "string",
                  "name": "winner",
                  "type": "string"
                }
              ],
              "internalType": "struct TournamentRegistry.Match[]",
              "name": "matches",
              "type": "tuple[]"
            },
            {
              "internalType": "string",
              "name": "winner",
              "type": "string"
            },
            {
              "internalType": "bool",
              "name": "pending",
              "type": "bool"
            },
            {
              "internalType": "bool",
              "name": "started",
              "type": "bool"
            }
          ],
          "internalType": "struct TournamentRegistry.Tournament[]",
          "name": "",
          "type": "tuple[]"
        }
      ],
      "stateMutability": "view",
      "type": "function",
      "constant": true
    },
    {
      "inputs": [
        {
          "internalType": "string",
          "name": "name",
          "type": "string"
        }
      ],
      "name": "deleteTournament",
      "outputs": [],
      "stateMutability": "nonpayable",
      "type": "function"
    },
    {
      "inputs": [],
      "name": "getActiveTournamentNames",
      "outputs": [
        {
          "internalType": "string[]",
          "name": "",
          "type": "string[]"
        }
      ],
      "stateMutability": "view",
      "type": "function",
      "constant": true
    },
    {
      "inputs": [],
      "name": "getTournamentNames",
      "outputs": [
        {
          "internalType": "string[]",
          "name": "",
          "type": "string[]"
        }
      ],
      "stateMutability": "view",
      "type": "function",
      "constant": true
    },
    {
      "inputs": [
        {
          "internalType": "uint256",
          "name": "tournamentIndex",
          "type": "uint256"
        }
      ],
      "name": "getContenders",
      "outputs": [
        {
          "components": [
            {
              "internalType": "string",
              "name": "name",
              "type": "string"
            },
            {
              "internalType": "uint256",
              "name": "elo",
              "type": "uint256"
            }
          ],
          "internalType": "struct TournamentRegistry.Player[]",
          "name": "",
          "type": "tuple[]"
        }
      ],
      "stateMutability": "view",
      "type": "function",
      "constant": true
    },
    {
      "inputs": [
        {
          "internalType": "uint256",
          "name": "tournamentIndex",
          "type": "uint256"
        }
      ],
      "name": "getMatches",
      "outputs": [
        {
          "components": [
            {
              "components": [
                {
                  "internalType": "string",
                  "name": "name",
                  "type": "string"
                },
                {
                  "internalType": "uint256",
                  "name": "elo",
                  "type": "uint256"
                }
              ],
              "internalType": "struct TournamentRegistry.Player",
              "name": "player1",
              "type": "tuple"
            },
            {
              "components": [
                {
                  "internalType": "string",
                  "name": "name",
                  "type": "string"
                },
                {
                  "internalType": "uint256",
                  "name": "elo",
                  "type": "uint256"
                }
              ],
              "internalType": "struct TournamentRegistry.Player",
              "name": "player2",
              "type": "tuple"
            },
            {
              "internalType": "uint256",
              "name": "scorePlayer1",
              "type": "uint256"
            },
            {
              "internalType": "uint256",
              "name": "scorePlayer2",
              "type": "uint256"
            },
            {
              "internalType": "string",
              "name": "round",
              "type": "string"
            },
            {
              "internalType": "string",
              "name": "winner",
              "type": "string"
            }
          ],
          "internalType": "struct TournamentRegistry.Match[]",
          "name": "",
          "type": "tuple[]"
        }
      ],
      "stateMutability": "view",
      "type": "function",
      "constant": true
    },
    {
      "inputs": [
        {
          "internalType": "uint256",
          "name": "tournamentIndex",
          "type": "uint256"
        }
      ],
      "name": "getTournamentWinner",
      "outputs": [
        {
          "internalType": "string",
          "name": "",
          "type": "string"
        }
      ],
      "stateMutability": "view",
      "type": "function",
      "constant": true
    },
    {
      "inputs": [
        {
          "internalType": "uint256",
          "name": "tournamentIndex",
          "type": "uint256"
        }
      ],
      "name": "isTournamentPending",
      "outputs": [
        {
          "internalType": "bool",
          "name": "",
          "type": "bool"
        }
      ],
      "stateMutability": "view",
      "type": "function",
      "constant": true
    },
    {
      "inputs": [
        {
          "internalType": "uint256",
          "name": "tournamentIndex",
          "type": "uint256"
        },
        {
          "internalType": "uint256",
          "name": "matchIndex",
          "type": "uint256"
        }
      ],
      "name": "getMatchDetails",
      "outputs": [
        {
          "components": [
            {
              "internalType": "string",
              "name": "name",
              "type": "string"
            },
            {
              "internalType": "uint256",
              "name": "elo",
              "type": "uint256"
            }
          ],
          "internalType": "struct TournamentRegistry.Player",
          "name": "",
          "type": "tuple"
        },
        {
          "components": [
            {
              "internalType": "string",
              "name": "name",
              "type": "string"
            },
            {
              "internalType": "uint256",
              "name": "elo",
              "type": "uint256"
            }
          ],
          "internalType": "struct TournamentRegistry.Player",
          "name": "",
          "type": "tuple"
        },
        {
          "internalType": "uint256",
          "name": "",
          "type": "uint256"
        },
        {
          "internalType": "uint256",
          "name": "",
          "type": "uint256"
        },
        {
          "internalType": "string",
          "name": "",
          "type": "string"
        },
        {
          "internalType": "string",
          "name": "",
          "type": "string"
        }
      ],
      "stateMutability": "view",
      "type": "function",
      "constant": true
    },
    {
      "inputs": [
        {
          "internalType": "uint256",
          "name": "tournamentIndex",
          "type": "uint256"
        },
        {
          "internalType": "uint256",
          "name": "matchIndex",
          "type": "uint256"
        }
      ],
      "name": "getMatchPlayer1",
      "outputs": [
        {
          "components": [
            {
              "internalType": "string",
              "name": "name",
              "type": "string"
            },
            {
              "internalType": "uint256",
              "name": "elo",
              "type": "uint256"
            }
          ],
          "internalType": "struct TournamentRegistry.Player",
          "name": "",
          "type": "tuple"
        }
      ],
      "stateMutability": "view",
      "type": "function",
      "constant": true
    },
    {
      "inputs": [
        {
          "internalType": "uint256",
          "name": "tournamentIndex",
          "type": "uint256"
        },
        {
          "internalType": "uint256",
          "name": "matchIndex",
          "type": "uint256"
        }
      ],
      "name": "getMatchPlayer2",
      "outputs": [
        {
          "components": [
            {
              "internalType": "string",
              "name": "name",
              "type": "string"
            },
            {
              "internalType": "uint256",
              "name": "elo",
              "type": "uint256"
            }
          ],
          "internalType": "struct TournamentRegistry.Player",
          "name": "",
          "type": "tuple"
        }
      ],
      "stateMutability": "view",
      "type": "function",
      "constant": true
    },
    {
      "inputs": [
        {
          "internalType": "uint256",
          "name": "tournamentIndex",
          "type": "uint256"
        },
        {
          "internalType": "uint256",
          "name": "matchIndex",
          "type": "uint256"
        }
      ],
      "name": "getMatchScores",
      "outputs": [
        {
          "internalType": "uint256",
          "name": "",
          "type": "uint256"
        },
        {
          "internalType": "uint256",
          "name": "",
          "type": "uint256"
        }
      ],
      "stateMutability": "view",
      "type": "function",
      "constant": true
    },
    {
      "inputs": [
        {
          "internalType": "uint256",
          "name": "tournamentIndex",
          "type": "uint256"
        },
        {
          "internalType": "uint256",
          "name": "matchIndex",
          "type": "uint256"
        }
      ],
      "name": "getMatchRound",
      "outputs": [
        {
          "internalType": "string",
          "name": "",
          "type": "string"
        }
      ],
      "stateMutability": "view",
      "type": "function",
      "constant": true
    },
    {
      "inputs": [
        {
          "internalType": "uint256",
          "name": "tournamentIndex",
          "type": "uint256"
        },
        {
          "internalType": "uint256",
          "name": "matchIndex",
          "type": "uint256"
        }
      ],
      "name": "getMatchWinner",
      "outputs": [
        {
          "internalType": "string",
          "name": "",
          "type": "string"
        }
      ],
      "stateMutability": "view",
      "type": "function",
      "constant": true
    },
    {
      "inputs": [
        {
          "internalType": "uint256",
          "name": "tournamentIndex",
          "type": "uint256"
        },
        {
          "internalType": "uint256",
          "name": "playerIndex",
          "type": "uint256"
        }
      ],
      "name": "getPlayerName",
      "outputs": [
        {
          "internalType": "string",
          "name": "",
          "type": "string"
        }
      ],
      "stateMutability": "view",
      "type": "function",
      "constant": true
    },
    {
      "inputs": [
        {
          "internalType": "uint256",
          "name": "tournamentIndex",
          "type": "uint256"
        },
        {
          "internalType": "uint256",
          "name": "playerIndex",
          "type": "uint256"
        }
      ],
      "name": "getPlayerElo",
      "outputs": [
        {
          "internalType": "uint256",
          "name": "",
          "type": "uint256"
        }
      ],
      "stateMutability": "view",
      "type": "function",
      "constant": true
    },
    {
      "inputs": [
        {
          "internalType": "uint256",
          "name": "tournamentIndex",
          "type": "uint256"
        },
        {
          "internalType": "string",
          "name": "playerName",
          "type": "string"
        }
      ],
      "name": "getPlayerIndexByName",
      "outputs": [
        {
          "internalType": "uint256",
          "name": "",
          "type": "uint256"
        }
      ],
      "stateMutability": "view",
      "type": "function",
      "constant": true
    },
    {
      "inputs": [
        {
          "internalType": "string",
          "name": "tournamentName",
          "type": "string"
        }
      ],
      "name": "getTournamentIndex",
      "outputs": [
        {
          "internalType": "int256",
          "name": "",
          "type": "int256"
        }
      ],
      "stateMutability": "view",
      "type": "function",
      "constant": true
    },
    {
      "inputs": [
        {
          "internalType": "string",
          "name": "newName",
          "type": "string"
        }
      ],
      "name": "addTournament",
      "outputs": [],
      "stateMutability": "nonpayable",
      "type": "function"
    },
    {
      "inputs": [
        {
          "internalType": "uint256",
          "name": "tournamentIndex",
          "type": "uint256"
        },
        {
          "internalType": "string",
          "name": "newName",
          "type": "string"
        },
        {
          "internalType": "uint256",
          "name": "newElo",
          "type": "uint256"
        }
      ],
      "name": "addPlayer",
      "outputs": [],
      "stateMutability": "nonpayable",
      "type": "function"
    },
    {
      "inputs": [
        {
          "internalType": "uint256",
          "name": "tournamentIndex",
          "type": "uint256"
        },
        {
          "internalType": "string",
          "name": "player1Name",
          "type": "string"
        },
        {
          "internalType": "string",
          "name": "player2Name",
          "type": "string"
        },
        {
          "internalType": "uint256",
          "name": "newscorePlayer1",
          "type": "uint256"
        },
        {
          "internalType": "uint256",
          "name": "newscorePlayer2",
          "type": "uint256"
        },
        {
          "internalType": "string",
          "name": "newround",
          "type": "string"
        },
        {
          "internalType": "string",
          "name": "newwinner",
          "type": "string"
        }
      ],
      "name": "addMatch",
      "outputs": [],
      "stateMutability": "nonpayable",
      "type": "function"
    },
    {
      "inputs": [
        {
          "internalType": "uint256",
          "name": "tournamentIndex",
          "type": "uint256"
        },
        {
          "internalType": "string",
          "name": "newWinner",
          "type": "string"
        }
      ],
      "name": "setTournamentWinner",
      "outputs": [],
      "stateMutability": "nonpayable",
      "type": "function"
    },
    {
      "inputs": [
        {
          "internalType": "uint256",
          "name": "tournamentIndex",
          "type": "uint256"
        },
        {
          "internalType": "bool",
          "name": "isPending",
          "type": "bool"
        }
      ],
      "name": "setTournamentPending",
      "outputs": [],
      "stateMutability": "nonpayable",
      "type": "function"
    },
    {
      "inputs": [
        {
          "internalType": "uint256",
          "name": "tournamentIndex",
          "type": "uint256"
        },
        {
          "internalType": "bool",
          "name": "isStarted",
          "type": "bool"
        }
      ],
      "name": "setTournamentStarted",
      "outputs": [],
      "stateMutability": "nonpayable",
      "type": "function"
    }
  ],
  "bytecode": "0x608060405234801561001057600080fd5b50614773806100206000396000f3fe608060405234801561001057600080fd5b50600436106101735760003560e01c806382030563116100de578063d3ed207c11610097578063e60d585a11610071578063e60d585a146104c1578063f401d33a146104f1578063f4baeb2b14610521578063f7f20cb31461055157610173565b8063d3ed207c14610454578063d66689bd14610489578063ddb17278146104a557610173565b8063820305631461035c5780638c82ae6c1461038c578063a3852404146103a8578063b765052b146103c4578063b8c7055a146103f4578063c88485a01461042457610173565b806354c7b3521161013057806354c7b3521461025e578063673d2db91461028f5780636823d7da146102bf5780636ef36d1f146102dd5780637503e1b7146102f9578063773b9fdb1461032c57610173565b806309d1db381461017857806312cf381f146101a857806317108c70146101c65780631ba9728b146101e257806323608b16146101fe5780632d757c5f1461022e575b600080fd5b610192600480360381019061018d9190613969565b61056f565b60405161019f91906141be565b60405180910390f35b6101b0610696565b6040516101bd9190614100565b60405180910390f35b6101e060048036038101906101db91906137b0565b610955565b005b6101fc60048036038101906101f79190613774565b6109b9565b005b61021860048036038101906102139190613969565b610a20565b6040516102259190614253565b60405180910390f35b610248600480360381019061024391906137b0565b610b6b565b60405161025591906142f2565b60405180910390f35b61027860048036038101906102739190613969565b610d72565b60405161028692919061430d565b60405180910390f35b6102a960048036038101906102a49190613969565b6110c2565b6040516102b691906142f2565b60405180910390f35b6102c7611160565b6040516102d49190614100565b60405180910390f35b6102f760048036038101906102f2919061370a565b611321565b005b610313600480360381019061030e919061374b565b61163e565b60405161032394939291906141e0565b60405180910390f35b61034660048036038101906103419190613969565b6117a8565b6040516103539190614253565b60405180910390f35b6103766004803603810190610371919061374b565b6118f3565b60405161038391906141be565b60405180910390f35b6103a660048036038101906103a19190613804565b6119d0565b005b6103c260048036038101906103bd9190613774565b611fba565b005b6103de60048036038101906103d9919061374b565b612021565b6040516103eb9190614188565b60405180910390f35b61040e6004803603810190610409919061370a565b612082565b60405161041b91906141a3565b60405180910390f35b61043e60048036038101906104399190613969565b61214b565b60405161044b91906141be565b60405180910390f35b61046e60048036038101906104699190613969565b612272565b60405161048096959493929190614275565b60405180910390f35b6104a3600480360381019061049e919061370a565b6125f4565b005b6104bf60048036038101906104ba9190613902565b61266e565b005b6104db60048036038101906104d6919061374b565b612702565b6040516104e89190614122565b60405180910390f35b61050b60048036038101906105069190613969565b612a44565b60405161051891906141be565b60405180910390f35b61053b6004803603810190610536919061374b565b612b6b565b6040516105489190614144565b60405180910390f35b610559612cb1565b6040516105669190614166565b60405180910390f35b6060600083815481106105ab577f4e487b7100000000000000000000000000000000000000000000000000000000600052603260045260246000fd5b906000526020600020906005020160020182815481106105f4577f4e487b7100000000000000000000000000000000000000000000000000000000600052603260045260246000fd5b90600052602060002090600802016007018054610610906145f6565b80601f016020809104026020016040519081016040528092919081815260200182805461063c906145f6565b80156106895780601f1061065e57610100808354040283529160200191610689565b820191906000526020600020905b81548152906001019060200180831161066c57829003601f168201915b5050505050905092915050565b60606000805b60008054905081101561072957600081815481106106e3577f4e487b7100000000000000000000000000000000000000000000000000000000600052603260045260246000fd5b906000526020600020906005020160040160019054906101000a900460ff161561071657818061071290614628565b9250505b808061072190614628565b91505061069c565b5060008167ffffffffffffffff81111561076c577f4e487b7100000000000000000000000000000000000000000000000000000000600052604160045260246000fd5b60405190808252806020026020018201604052801561079f57816020015b606081526020019060019003908161078a5790505b5090506000805b60008054905081101561094b57600081815481106107ed577f4e487b7100000000000000000000000000000000000000000000000000000000600052603260045260246000fd5b906000526020600020906005020160040160019054906101000a900460ff1615610938576000818154811061084b577f4e487b7100000000000000000000000000000000000000000000000000000000600052603260045260246000fd5b90600052602060002090600502016000018054610867906145f6565b80601f0160208091040260200160405190810160405280929190818152602001828054610893906145f6565b80156108e05780601f106108b5576101008083540402835291602001916108e0565b820191906000526020600020905b8154815290600101906020018083116108c357829003601f168201915b505050505083838151811061091e577f4e487b7100000000000000000000000000000000000000000000000000000000600052603260045260246000fd5b6020026020010181905250818061093490614628565b9250505b808061094390614628565b9150506107a6565b5081935050505090565b8060008381548110610990577f4e487b7100000000000000000000000000000000000000000000000000000000600052603260045260246000fd5b906000526020600020906005020160030190805190602001906109b492919061325c565b505050565b80600083815481106109f4577f4e487b7100000000000000000000000000000000000000000000000000000000600052603260045260246000fd5b906000526020600020906005020160040160006101000a81548160ff0219169083151502179055505050565b610a286132e2565b60008381548110610a62577f4e487b7100000000000000000000000000000000000000000000000000000000600052603260045260246000fd5b90600052602060002090600502016002018281548110610aab577f4e487b7100000000000000000000000000000000000000000000000000000000600052603260045260246000fd5b9060005260206000209060080201600201604051806040016040529081600082018054610ad7906145f6565b80601f0160208091040260200160405190810160405280929190818152602001828054610b03906145f6565b8015610b505780601f10610b2557610100808354040283529160200191610b50565b820191906000526020600020905b815481529060010190602001808311610b3357829003601f168201915b50505050508152602001600182015481525050905092915050565b60008060008481548110610ba8577f4e487b7100000000000000000000000000000000000000000000000000000000600052603260045260246000fd5b9060005260206000209060050201600101805480602002602001604051908101604052809291908181526020016000905b82821015610ca75783829060005260206000209060020201604051806040016040529081600082018054610c0c906145f6565b80601f0160208091040260200160405190810160405280929190818152602001828054610c38906145f6565b8015610c855780601f10610c5a57610100808354040283529160200191610c85565b820191906000526020600020905b815481529060010190602001808311610c6857829003601f168201915b5050505050815260200160018201548152505081526020019060010190610bd9565b50505050905060005b8151811015610d30578380519060200120828281518110610cfa577f4e487b7100000000000000000000000000000000000000000000000000000000600052603260045260246000fd5b602002602001015160000151805190602001201415610d1d578092505050610d6c565b8080610d2890614628565b915050610cb0565b506040517f08c379a0000000000000000000000000000000000000000000000000000000008152600401610d6390614233565b60405180910390fd5b92915050565b6000806000808581548110610db0577f4e487b7100000000000000000000000000000000000000000000000000000000600052603260045260246000fd5b90600052602060002090600502016002018481548110610df9577f4e487b7100000000000000000000000000000000000000000000000000000000600052603260045260246000fd5b90600052602060002090600802016040518060c001604052908160008201604051806040016040529081600082018054610e32906145f6565b80601f0160208091040260200160405190810160405280929190818152602001828054610e5e906145f6565b8015610eab5780601f10610e8057610100808354040283529160200191610eab565b820191906000526020600020905b815481529060010190602001808311610e8e57829003601f168201915b50505050508152602001600182015481525050815260200160028201604051806040016040529081600082018054610ee2906145f6565b80601f0160208091040260200160405190810160405280929190818152602001828054610f0e906145f6565b8015610f5b5780601f10610f3057610100808354040283529160200191610f5b565b820191906000526020600020905b815481529060010190602001808311610f3e57829003601f168201915b5050505050815260200160018201548152505081526020016004820154815260200160058201548152602001600682018054610f96906145f6565b80601f0160208091040260200160405190810160405280929190818152602001828054610fc2906145f6565b801561100f5780601f10610fe45761010080835404028352916020019161100f565b820191906000526020600020905b815481529060010190602001808311610ff257829003601f168201915b50505050508152602001600782018054611028906145f6565b80601f0160208091040260200160405190810160405280929190818152602001828054611054906145f6565b80156110a15780601f10611076576101008083540402835291602001916110a1565b820191906000526020600020905b81548152906001019060200180831161108457829003601f168201915b50505050508152505090508060400151816060015192509250509250929050565b60008083815481106110fd577f4e487b7100000000000000000000000000000000000000000000000000000000600052603260045260246000fd5b90600052602060002090600502016001018281548110611146577f4e487b7100000000000000000000000000000000000000000000000000000000600052603260045260246000fd5b906000526020600020906002020160010154905092915050565b60606000808054905067ffffffffffffffff8111156111a8577f4e487b7100000000000000000000000000000000000000000000000000000000600052604160045260246000fd5b6040519080825280602002602001820160405280156111db57816020015b60608152602001906001900390816111c65790505b50905060005b6000805490508110156113195760008181548110611228577f4e487b7100000000000000000000000000000000000000000000000000000000600052603260045260246000fd5b90600052602060002090600502016000018054611244906145f6565b80601f0160208091040260200160405190810160405280929190818152602001828054611270906145f6565b80156112bd5780601f10611292576101008083540402835291602001916112bd565b820191906000526020600020905b8154815290600101906020018083116112a057829003601f168201915b50505050508282815181106112fb577f4e487b7100000000000000000000000000000000000000000000000000000000600052603260045260246000fd5b6020026020010181905250808061131190614628565b9150506111e1565b508091505090565b60005b60008054905081101561163a578160405160200161134291906140d2565b6040516020818303038152906040528051906020012060008281548110611392577f4e487b7100000000000000000000000000000000000000000000000000000000600052603260045260246000fd5b90600052602060002090600502016000016040516020016113b391906140e9565b6040516020818303038152906040528051906020012014156116275760008190505b60016000805490506113e79190614560565b8110156115685760006001826113fd919061450a565b81548110611434577f4e487b7100000000000000000000000000000000000000000000000000000000600052603260045260246000fd5b90600052602060002090600502016000828154811061147c577f4e487b7100000000000000000000000000000000000000000000000000000000600052603260045260246000fd5b9060005260206000209060050201600082018160000190805461149e906145f6565b6114a99291906132fc565b5060018201816001019080546114c0929190613389565b5060028201816002019080546114d792919061340b565b5060038201816003019080546114ec906145f6565b6114f79291906132fc565b506004820160009054906101000a900460ff168160040160006101000a81548160ff0219169083151502179055506004820160019054906101000a900460ff168160040160016101000a81548160ff021916908315150217905550905050808061156090614628565b9150506113d5565b5060008054806115a1577f4e487b7100000000000000000000000000000000000000000000000000000000600052603160045260246000fd5b6001900381819060005260206000209060050201600080820160006115c6919061351f565b6001820160006115d6919061355f565b6002820160006115e69190613583565b6003820160006115f6919061351f565b6004820160006101000a81549060ff02191690556004820160016101000a81549060ff02191690555050905561163a565b808061163290614628565b915050611324565b5050565b6000818154811061164e57600080fd5b9060005260206000209060050201600091509050806000018054611671906145f6565b80601f016020809104026020016040519081016040528092919081815260200182805461169d906145f6565b80156116ea5780601f106116bf576101008083540402835291602001916116ea565b820191906000526020600020905b8154815290600101906020018083116116cd57829003601f168201915b5050505050908060030180546116ff906145f6565b80601f016020809104026020016040519081016040528092919081815260200182805461172b906145f6565b80156117785780601f1061174d57610100808354040283529160200191611778565b820191906000526020600020905b81548152906001019060200180831161175b57829003601f168201915b5050505050908060040160009054906101000a900460ff16908060040160019054906101000a900460ff16905084565b6117b06132e2565b600083815481106117ea577f4e487b7100000000000000000000000000000000000000000000000000000000600052603260045260246000fd5b90600052602060002090600502016002018281548110611833577f4e487b7100000000000000000000000000000000000000000000000000000000600052603260045260246000fd5b906000526020600020906008020160000160405180604001604052908160008201805461185f906145f6565b80601f016020809104026020016040519081016040528092919081815260200182805461188b906145f6565b80156118d85780601f106118ad576101008083540402835291602001916118d8565b820191906000526020600020905b8154815290600101906020018083116118bb57829003601f168201915b50505050508152602001600182015481525050905092915050565b60606000828154811061192f577f4e487b7100000000000000000000000000000000000000000000000000000000600052603260045260246000fd5b9060005260206000209060050201600301805461194b906145f6565b80601f0160208091040260200160405190810160405280929190818152602001828054611977906145f6565b80156119c45780601f10611999576101008083540402835291602001916119c4565b820191906000526020600020905b8154815290600101906020018083116119a757829003601f168201915b50505050509050919050565b6119d86132e2565b6119e06132e2565b60008060005b60008c81548110611a20577f4e487b7100000000000000000000000000000000000000000000000000000000600052603260045260246000fd5b906000526020600020906005020160010180549050811015611e39578a8051906020012060008d81548110611a7e577f4e487b7100000000000000000000000000000000000000000000000000000000600052603260045260246000fd5b90600052602060002090600502016001018281548110611ac7577f4e487b7100000000000000000000000000000000000000000000000000000000600052603260045260246000fd5b9060005260206000209060020201600001604051611ae591906140bb565b60405180910390201415611c315760008c81548110611b2d577f4e487b7100000000000000000000000000000000000000000000000000000000600052603260045260246000fd5b90600052602060002090600502016001018181548110611b76577f4e487b7100000000000000000000000000000000000000000000000000000000600052603260045260246000fd5b9060005260206000209060020201604051806040016040529081600082018054611b9f906145f6565b80601f0160208091040260200160405190810160405280929190818152602001828054611bcb906145f6565b8015611c185780601f10611bed57610100808354040283529160200191611c18565b820191906000526020600020905b815481529060010190602001808311611bfb57829003601f168201915b5050505050815260200160018201548152505094508092505b898051906020012060008d81548110611c73577f4e487b7100000000000000000000000000000000000000000000000000000000600052603260045260246000fd5b90600052602060002090600502016001018281548110611cbc577f4e487b7100000000000000000000000000000000000000000000000000000000600052603260045260246000fd5b9060005260206000209060020201600001604051611cda91906140bb565b60405180910390201415611e265760008c81548110611d22577f4e487b7100000000000000000000000000000000000000000000000000000000600052603260045260246000fd5b90600052602060002090600502016001018181548110611d6b577f4e487b7100000000000000000000000000000000000000000000000000000000600052603260045260246000fd5b9060005260206000209060020201604051806040016040529081600082018054611d94906145f6565b80601f0160208091040260200160405190810160405280929190818152602001828054611dc0906145f6565b8015611e0d5780601f10611de257610100808354040283529160200191611e0d565b820191906000526020600020905b815481529060010190602001808311611df057829003601f168201915b5050505050815260200160018201548152505093508091505b8080611e3190614628565b9150506119e6565b506000808c81548110611e75577f4e487b7100000000000000000000000000000000000000000000000000000000600052603260045260246000fd5b9060005260206000209060050201600201600181600181540180825580915050039060005260206000209060080201905084816000016000820151816000019080519060200190611ec792919061325c565b506020820151816001015590505083816002016000820151816000019080519060200190611ef692919061325c565b506020820151816001015590505088816004018190555087816005018190555086816006019080519060200190611f2e92919061325c565b5085816007019080519060200190611f4792919061325c565b50600160008d81548110611f84577f4e487b7100000000000000000000000000000000000000000000000000000000600052603260045260246000fd5b906000526020600020906005020160040160016101000a81548160ff021916908315150217905550505050505050505050505050565b8060008381548110611ff5577f4e487b7100000000000000000000000000000000000000000000000000000000600052603260045260246000fd5b906000526020600020906005020160040160016101000a81548160ff0219169083151502179055505050565b600080828154811061205c577f4e487b7100000000000000000000000000000000000000000000000000000000600052603260045260246000fd5b906000526020600020906005020160040160009054906101000a900460ff169050919050565b600080600090505b600080549050811015612121578280519060200120600082815481106120d9577f4e487b7100000000000000000000000000000000000000000000000000000000600052603260045260246000fd5b90600052602060002090600502016000016040516120f791906140bb565b6040518091039020141561210e5780915050612146565b808061211990614628565b91505061208a565b507fffffffffffffffffffffffffffffffffffffffffffffffffffffffffffffffff90505b919050565b606060008381548110612187577f4e487b7100000000000000000000000000000000000000000000000000000000600052603260045260246000fd5b906000526020600020906005020160010182815481106121d0577f4e487b7100000000000000000000000000000000000000000000000000000000600052603260045260246000fd5b906000526020600020906002020160000180546121ec906145f6565b80601f0160208091040260200160405190810160405280929190818152602001828054612218906145f6565b80156122655780601f1061223a57610100808354040283529160200191612265565b820191906000526020600020905b81548152906001019060200180831161224857829003601f168201915b5050505050905092915050565b61227a6132e2565b6122826132e2565b60008060608060008089815481106122c3577f4e487b7100000000000000000000000000000000000000000000000000000000600052603260045260246000fd5b9060005260206000209060050201600201888154811061230c577f4e487b7100000000000000000000000000000000000000000000000000000000600052603260045260246000fd5b90600052602060002090600802016040518060c001604052908160008201604051806040016040529081600082018054612345906145f6565b80601f0160208091040260200160405190810160405280929190818152602001828054612371906145f6565b80156123be5780601f10612393576101008083540402835291602001916123be565b820191906000526020600020905b8154815290600101906020018083116123a157829003601f168201915b505050505081526020016001820154815250508152602001600282016040518060400160405290816000820180546123f5906145f6565b80601f0160208091040260200160405190810160405280929190818152602001828054612421906145f6565b801561246e5780601f106124435761010080835404028352916020019161246e565b820191906000526020600020905b81548152906001019060200180831161245157829003601f168201915b50505050508152602001600182015481525050815260200160048201548152602001600582015481526020016006820180546124a9906145f6565b80601f01602080910402602001604051908101604052809291908181526020018280546124d5906145f6565b80156125225780601f106124f757610100808354040283529160200191612522565b820191906000526020600020905b81548152906001019060200180831161250557829003601f168201915b5050505050815260200160078201805461253b906145f6565b80601f0160208091040260200160405190810160405280929190818152602001828054612567906145f6565b80156125b45780601f10612589576101008083540402835291602001916125b4565b820191906000526020600020905b81548152906001019060200180831161259757829003601f168201915b5050505050815250509050806000015181602001518260400151836060015184608001518560a00151965096509650965096509650509295509295509295565b60008060018160018154018082558091505003906000526020600020906005020190508181600001908051906020019061262f92919061325c565b5060018160040160006101000a81548160ff02191690831515021790555060008160040160016101000a81548160ff0219169083151502179055505050565b60008084815481106126a9577f4e487b7100000000000000000000000000000000000000000000000000000000600052603260045260246000fd5b90600052602060002090600502016001016001816001815401808255809150500390600052602060002090600202019050828160000190805190602001906126f292919061325c565b5081816001018190555050505050565b60606000828154811061273e577f4e487b7100000000000000000000000000000000000000000000000000000000600052603260045260246000fd5b9060005260206000209060050201600201805480602002602001604051908101604052809291908181526020016000905b82821015612a3957838290600052602060002090600802016040518060c0016040529081600082016040518060400160405290816000820180546127b2906145f6565b80601f01602080910402602001604051908101604052809291908181526020018280546127de906145f6565b801561282b5780601f106128005761010080835404028352916020019161282b565b820191906000526020600020905b81548152906001019060200180831161280e57829003601f168201915b50505050508152602001600182015481525050815260200160028201604051806040016040529081600082018054612862906145f6565b80601f016020809104026020016040519081016040528092919081815260200182805461288e906145f6565b80156128db5780601f106128b0576101008083540402835291602001916128db565b820191906000526020600020905b8154815290600101906020018083116128be57829003601f168201915b5050505050815260200160018201548152505081526020016004820154815260200160058201548152602001600682018054612916906145f6565b80601f0160208091040260200160405190810160405280929190818152602001828054612942906145f6565b801561298f5780601f106129645761010080835404028352916020019161298f565b820191906000526020600020905b81548152906001019060200180831161297257829003601f168201915b505050505081526020016007820180546129a8906145f6565b80601f01602080910402602001604051908101604052809291908181526020018280546129d4906145f6565b8015612a215780601f106129f657610100808354040283529160200191612a21565b820191906000526020600020905b815481529060010190602001808311612a0457829003601f168201915b5050505050815250508152602001906001019061276f565b505050509050919050565b606060008381548110612a80577f4e487b7100000000000000000000000000000000000000000000000000000000600052603260045260246000fd5b90600052602060002090600502016002018281548110612ac9577f4e487b7100000000000000000000000000000000000000000000000000000000600052603260045260246000fd5b90600052602060002090600802016006018054612ae5906145f6565b80601f0160208091040260200160405190810160405280929190818152602001828054612b11906145f6565b8015612b5e5780601f10612b3357610100808354040283529160200191612b5e565b820191906000526020600020905b815481529060010190602001808311612b4157829003601f168201915b5050505050905092915050565b606060008281548110612ba7577f4e487b7100000000000000000000000000000000000000000000000000000000600052603260045260246000fd5b9060005260206000209060050201600101805480602002602001604051908101604052809291908181526020016000905b82821015612ca65783829060005260206000209060020201604051806040016040529081600082018054612c0b906145f6565b80601f0160208091040260200160405190810160405280929190818152602001828054612c37906145f6565b8015612c845780601f10612c5957610100808354040283529160200191612c84565b820191906000526020600020905b815481529060010190602001808311612c6757829003601f168201915b5050505050815260200160018201548152505081526020019060010190612bd8565b505050509050919050565b60606000805480602002602001604051908101604052809291908181526020016000905b8282101561325357838290600052602060002090600502016040518060c0016040529081600082018054612d08906145f6565b80601f0160208091040260200160405190810160405280929190818152602001828054612d34906145f6565b8015612d815780601f10612d5657610100808354040283529160200191612d81565b820191906000526020600020905b815481529060010190602001808311612d6457829003601f168201915b5050505050815260200160018201805480602002602001604051908101604052809291908181526020016000905b82821015612e7d5783829060005260206000209060020201604051806040016040529081600082018054612de2906145f6565b80601f0160208091040260200160405190810160405280929190818152602001828054612e0e906145f6565b8015612e5b5780601f10612e3057610100808354040283529160200191612e5b565b820191906000526020600020905b815481529060010190602001808311612e3e57829003601f168201915b5050505050815260200160018201548152505081526020019060010190612daf565b50505050815260200160028201805480602002602001604051908101604052809291908181526020016000905b8282101561317457838290600052602060002090600802016040518060c001604052908160008201604051806040016040529081600082018054612eed906145f6565b80601f0160208091040260200160405190810160405280929190818152602001828054612f19906145f6565b8015612f665780601f10612f3b57610100808354040283529160200191612f66565b820191906000526020600020905b815481529060010190602001808311612f4957829003601f168201915b50505050508152602001600182015481525050815260200160028201604051806040016040529081600082018054612f9d906145f6565b80601f0160208091040260200160405190810160405280929190818152602001828054612fc9906145f6565b80156130165780601f10612feb57610100808354040283529160200191613016565b820191906000526020600020905b815481529060010190602001808311612ff957829003601f168201915b5050505050815260200160018201548152505081526020016004820154815260200160058201548152602001600682018054613051906145f6565b80601f016020809104026020016040519081016040528092919081815260200182805461307d906145f6565b80156130ca5780601f1061309f576101008083540402835291602001916130ca565b820191906000526020600020905b8154815290600101906020018083116130ad57829003601f168201915b505050505081526020016007820180546130e3906145f6565b80601f016020809104026020016040519081016040528092919081815260200182805461310f906145f6565b801561315c5780601f106131315761010080835404028352916020019161315c565b820191906000526020600020905b81548152906001019060200180831161313f57829003601f168201915b50505050508152505081526020019060010190612eaa565b50505050815260200160038201805461318c906145f6565b80601f01602080910402602001604051908101604052809291908181526020018280546131b8906145f6565b80156132055780601f106131da57610100808354040283529160200191613205565b820191906000526020600020905b8154815290600101906020018083116131e857829003601f168201915b505050505081526020016004820160009054906101000a900460ff161515151581526020016004820160019054906101000a900460ff16151515158152505081526020019060010190612cd5565b50505050905090565b828054613268906145f6565b90600052602060002090601f01602090048101928261328a57600085556132d1565b82601f106132a357805160ff19168380011785556132d1565b828001600101855582156132d1579182015b828111156132d05782518255916020019190600101906132b5565b5b5090506132de91906135a7565b5090565b604051806040016040528060608152602001600081525090565b828054613308906145f6565b90600052602060002090601f01602090048101928261332a5760008555613378565b82601f1061333b5780548555613378565b8280016001018555821561337857600052602060002091601f016020900482015b8281111561337757825482559160010191906001019061335c565b5b50905061338591906135a7565b5090565b8280548282559060005260206000209060020281019282156133fa5760005260206000209160020282015b828111156133f957828260008201816000019080546133d2906145f6565b6133dd9291906132fc565b50600182015481600101555050916002019190600201906133b4565b5b50905061340791906135c4565b5090565b82805482825590600052602060002090600802810192821561350e5760005260206000209160080282015b8281111561350d5782826000820181600001600082018160000190805461345c906145f6565b6134679291906132fc565b5060018201548160010155505060028201816002016000820181600001908054613490906145f6565b61349b9291906132fc565b50600182015481600101555050600482015481600401556005820154816005015560068201816006019080546134d0906145f6565b6134db9291906132fc565b5060078201816007019080546134f0906145f6565b6134fb9291906132fc565b50505091600801919060080190613436565b5b50905061351b91906135f3565b5090565b50805461352b906145f6565b6000825580601f1061353d575061355c565b601f01602090049060005260206000209081019061355b91906135a7565b5b50565b508054600082556002029060005260206000209081019061358091906135c4565b50565b50805460008255600802906000526020600020908101906135a491906135f3565b50565b5b808211156135c05760008160009055506001016135a8565b5090565b5b808211156135ef57600080820160006135de919061351f565b6001820160009055506002016135c5565b5090565b5b8082111561367457600080820160008082016000613612919061351f565b600182016000905550506002820160008082016000613631919061351f565b600182016000905550506004820160009055600582016000905560068201600061365b919061351f565b60078201600061366b919061351f565b506008016135f4565b5090565b600061368b61368684614367565b614336565b9050828152602081018484840111156136a357600080fd5b6136ae8482856145b4565b509392505050565b6000813590506136c58161470f565b92915050565b600082601f8301126136dc57600080fd5b81356136ec848260208601613678565b91505092915050565b60008135905061370481614726565b92915050565b60006020828403121561371c57600080fd5b600082013567ffffffffffffffff81111561373657600080fd5b613742848285016136cb565b91505092915050565b60006020828403121561375d57600080fd5b600061376b848285016136f5565b91505092915050565b6000806040838503121561378757600080fd5b6000613795858286016136f5565b92505060206137a6858286016136b6565b9150509250929050565b600080604083850312156137c357600080fd5b60006137d1858286016136f5565b925050602083013567ffffffffffffffff8111156137ee57600080fd5b6137fa858286016136cb565b9150509250929050565b600080600080600080600060e0888a03121561381f57600080fd5b600061382d8a828b016136f5565b975050602088013567ffffffffffffffff81111561384a57600080fd5b6138568a828b016136cb565b965050604088013567ffffffffffffffff81111561387357600080fd5b61387f8a828b016136cb565b95505060606138908a828b016136f5565b94505060806138a18a828b016136f5565b93505060a088013567ffffffffffffffff8111156138be57600080fd5b6138ca8a828b016136cb565b92505060c088013567ffffffffffffffff8111156138e757600080fd5b6138f38a828b016136cb565b91505092959891949750929550565b60008060006060848603121561391757600080fd5b6000613925868287016136f5565b935050602084013567ffffffffffffffff81111561394257600080fd5b61394e868287016136cb565b925050604061395f868287016136f5565b9150509250925092565b6000806040838503121561397c57600080fd5b600061398a858286016136f5565b925050602061399b858286016136f5565b9150509250929050565b60006139b18383613d5f565b905092915050565b60006139c58383613ee7565b905092915050565b60006139d98383613f85565b905092915050565b60006139ed8383613fff565b905092915050565b6000613a0082614401565b613a0a818561446c565b935083602082028501613a1c85614397565b8060005b85811015613a585784840389528151613a3985826139a5565b9450613a4483614438565b925060208a01995050600181019050613a20565b50829750879550505050505092915050565b6000613a758261440c565b613a7f818561447d565b935083602082028501613a91856143a7565b8060005b85811015613acd5784840389528151613aae85826139b9565b9450613ab983614445565b925060208a01995050600181019050613a95565b50829750879550505050505092915050565b6000613aea8261440c565b613af4818561448e565b935083602082028501613b06856143a7565b8060005b85811015613b425784840389528151613b2385826139b9565b9450613b2e83614445565b925060208a01995050600181019050613b0a565b50829750879550505050505092915050565b6000613b5f82614417565b613b69818561449f565b935083602082028501613b7b856143b7565b8060005b85811015613bb75784840389528151613b9885826139cd565b9450613ba383614452565b925060208a01995050600181019050613b7f565b50829750879550505050505092915050565b6000613bd482614417565b613bde81856144b0565b935083602082028501613bf0856143b7565b8060005b85811015613c2c5784840389528151613c0d85826139cd565b9450613c1883614452565b925060208a01995050600181019050613bf4565b50829750879550505050505092915050565b6000613c4982614422565b613c5381856144c1565b935083602082028501613c65856143c7565b8060005b85811015613ca15784840389528151613c8285826139e1565b9450613c8d8361445f565b925060208a01995050600181019050613c69565b50829750879550505050505092915050565b613cbc81614594565b82525050565b613ccb81614594565b82525050565b60008154613cde816145f6565b613ce881866144d2565b94506001821660008114613d035760018114613d1457613d47565b60ff19831686528186019350613d47565b613d1d856143d7565b60005b83811015613d3f57815481890152600182019150602081019050613d20565b838801955050505b50505092915050565b613d59816145a0565b82525050565b6000613d6a8261442d565b613d7481856144dd565b9350613d848185602086016145c3565b613d8d816146fe565b840191505092915050565b6000613da38261442d565b613dad81856144ee565b9350613dbd8185602086016145c3565b613dc6816146fe565b840191505092915050565b6000613ddc8261442d565b613de681856144ff565b9350613df68185602086016145c3565b80840191505092915050565b60008154613e0f816145f6565b613e1981866144ff565b94506001821660008114613e345760018114613e4557613e78565b60ff19831686528186019350613e78565b613e4e856143ec565b60005b83811015613e7057815481890152600182019150602081019050613e51565b838801955050505b50505092915050565b6000613e8e6022836144ee565b91507f506c61796572206e6f7420666f756e6420696e2074686520746f75726e616d6560008301527f6e740000000000000000000000000000000000000000000000000000000000006020830152604082019050919050565b600060c0830160008301518482036000860152613f048282613f85565b91505060208301518482036020860152613f1e8282613f85565b9150506040830151613f33604086018261409d565b506060830151613f46606086018261409d565b5060808301518482036080860152613f5e8282613d5f565b91505060a083015184820360a0860152613f788282613d5f565b9150508091505092915050565b60006040830160008301518482036000860152613fa28282613d5f565b9150506020830151613fb7602086018261409d565b508091505092915050565b60006040830160008301518482036000860152613fdf8282613d5f565b9150506020830151613ff4602086018261409d565b508091505092915050565b600060c083016000830151848203600086015261401c8282613d5f565b915050602083015184820360208601526140368282613b54565b915050604083015184820360408601526140508282613a6a565b9150506060830151848203606086015261406a8282613d5f565b915050608083015161407f6080860182613cb3565b5060a083015161409260a0860182613cb3565b508091505092915050565b6140a6816145aa565b82525050565b6140b5816145aa565b82525050565b60006140c78284613cd1565b915081905092915050565b60006140de8284613dd1565b915081905092915050565b60006140f58284613e02565b915081905092915050565b6000602082019050818103600083015261411a81846139f5565b905092915050565b6000602082019050818103600083015261413c8184613adf565b905092915050565b6000602082019050818103600083015261415e8184613bc9565b905092915050565b600060208201905081810360008301526141808184613c3e565b905092915050565b600060208201905061419d6000830184613cc2565b92915050565b60006020820190506141b86000830184613d50565b92915050565b600060208201905081810360008301526141d88184613d98565b905092915050565b600060808201905081810360008301526141fa8187613d98565b9050818103602083015261420e8186613d98565b905061421d6040830185613cc2565b61422a6060830184613cc2565b95945050505050565b6000602082019050818103600083015261424c81613e81565b9050919050565b6000602082019050818103600083015261426d8184613fc2565b905092915050565b600060c082019050818103600083015261428f8189613fc2565b905081810360208301526142a38188613fc2565b90506142b260408301876140ac565b6142bf60608301866140ac565b81810360808301526142d18185613d98565b905081810360a08301526142e58184613d98565b9050979650505050505050565b600060208201905061430760008301846140ac565b92915050565b600060408201905061432260008301856140ac565b61432f60208301846140ac565b9392505050565b6000604051905081810181811067ffffffffffffffff8211171561435d5761435c6146cf565b5b8060405250919050565b600067ffffffffffffffff821115614382576143816146cf565b5b601f19601f8301169050602081019050919050565b6000819050602082019050919050565b6000819050602082019050919050565b6000819050602082019050919050565b6000819050602082019050919050565b60008190508160005260206000209050919050565b60008190508160005260206000209050919050565b600081519050919050565b600081519050919050565b600081519050919050565b600081519050919050565b600081519050919050565b6000602082019050919050565b6000602082019050919050565b6000602082019050919050565b6000602082019050919050565b600082825260208201905092915050565b600082825260208201905092915050565b600082825260208201905092915050565b600082825260208201905092915050565b600082825260208201905092915050565b600082825260208201905092915050565b600081905092915050565b600082825260208201905092915050565b600082825260208201905092915050565b600081905092915050565b6000614515826145aa565b9150614520836145aa565b9250827fffffffffffffffffffffffffffffffffffffffffffffffffffffffffffffffff0382111561455557614554614671565b5b828201905092915050565b600061456b826145aa565b9150614576836145aa565b92508282101561458957614588614671565b5b828203905092915050565b60008115159050919050565b6000819050919050565b6000819050919050565b82818337600083830152505050565b60005b838110156145e15780820151818401526020810190506145c6565b838111156145f0576000848401525b50505050565b6000600282049050600182168061460e57607f821691505b60208210811415614622576146216146a0565b5b50919050565b6000614633826145aa565b91507fffffffffffffffffffffffffffffffffffffffffffffffffffffffffffffffff82141561466657614665614671565b5b600182019050919050565b7f4e487b7100000000000000000000000000000000000000000000000000000000600052601160045260246000fd5b7f4e487b7100000000000000000000000000000000000000000000000000000000600052602260045260246000fd5b7f4e487b7100000000000000000000000000000000000000000000000000000000600052604160045260246000fd5b6000601f19601f8301169050919050565b61471881614594565b811461472357600080fd5b50565b61472f816145aa565b811461473a57600080fd5b5056fea264697066735822122010fe2d7aeba95ebb5d19b3137914bcadc7ecbecd16ce45b80fdb3ac598013c7b64736f6c63430008000033",
  "immutableReferences": {},
  "source": "// SPDX-License-Identifier: MIT\n\npragma solidity ^0.8.0;\n\ncontract TournamentRegistry {\n\n    // Structure de donnes pour reprsenter un joueur\n    struct Player {\n        string name;\n        uint elo;\n    }\n\n    // Structure de donnes pour reprsenter un match\n    struct Match {\n        Player player1;\n        Player player2;\n        uint scorePlayer1;\n        uint scorePlayer2;\n        string round;\n        string winner;\n    }\n\n    struct Tournament {\n        string TournamentName;\n        Player[] contenders;\n        Match[] matches;\n        string winner;\n        bool pending;\n        bool started;\n    }\n\n    Tournament[] public tournaments;\n\n//Tournament getters\n\n    // Get all tournaments\n    function getTournaments() public view returns (Tournament[] memory) {\n        return tournaments;\n    }\n\n    function deleteTournament(string memory name) public {\n        for (uint i = 0; i < tournaments.length; i++) {\n            if (keccak256(abi.encodePacked(tournaments[i].TournamentName)) == keccak256(abi.encodePacked(name))) {\n                for (uint j = i; j < tournaments.length - 1; j++) {\n                    tournaments[j] = tournaments[j + 1];\n                }\n                tournaments.pop();\n                break;\n            }\n        }\n    }\n    \n    function getActiveTournamentNames() public view returns (string[] memory) {\n        uint startedCount = 0;\n        for (uint i = 0; i < tournaments.length; i++) {\n            if (tournaments[i].started) {\n                startedCount++;\n            }\n        }\n        \n        string[] memory names = new string[](startedCount);\n        uint index = 0;\n        for (uint i = 0; i < tournaments.length; i++) {\n            if (tournaments[i].started) {\n                names[index] = tournaments[i].TournamentName;\n                index++;\n            }\n        }\n        return names;\n    }\n\n\n    function getTournamentNames() public view returns (string[] memory) {\n        string[] memory names = new string[](tournaments.length);\n        for (uint i = 0; i < tournaments.length; i++) {\n            names[i] = tournaments[i].TournamentName;\n        }\n        return names;\n    }\n\n    // Get all contenders for a given tournament\n    function getContenders(uint tournamentIndex) public view returns (Player[] memory) {\n        return tournaments[tournamentIndex].contenders;\n    }\n\n    // Get all matches for a given tournament\n    function getMatches(uint tournamentIndex) public view returns (Match[] memory) {\n        return tournaments[tournamentIndex].matches;\n    }\n\n    // Get the winner of a given tournament\n    function getTournamentWinner(uint tournamentIndex) public view returns (string memory) {\n        return tournaments[tournamentIndex].winner;\n    }\n\n    // Get the pending status of a given tournament\n    function isTournamentPending(uint tournamentIndex) public view returns (bool) {\n        return tournaments[tournamentIndex].pending;\n    }\n\n\n    //Matches getters\n\n\n    // Get the details of a match by its index\n    function getMatchDetails(uint tournamentIndex, uint matchIndex) public view returns (Player memory, Player memory, uint, uint, string memory, string memory) {\n        Match memory matchDetails = tournaments[tournamentIndex].matches[matchIndex];\n        return (matchDetails.player1, matchDetails.player2, matchDetails.scorePlayer1, matchDetails.scorePlayer2, matchDetails.round, matchDetails.winner);\n    }\n\n    // Get the player1 details of a match by its index\n    function getMatchPlayer1(uint tournamentIndex, uint matchIndex) public view returns (Player memory) {\n        return tournaments[tournamentIndex].matches[matchIndex].player1;\n    }\n\n    // Get the player2 details of a match by its index\n    function getMatchPlayer2(uint tournamentIndex, uint matchIndex) public view returns (Player memory) {\n        return tournaments[tournamentIndex].matches[matchIndex].player2;\n    }\n\n    // Get the scores of player1 and player2 in a match by its index\n    function getMatchScores(uint tournamentIndex, uint matchIndex) public view returns (uint, uint) {\n        Match memory matchDetails = tournaments[tournamentIndex].matches[matchIndex];\n        return (matchDetails.scorePlayer1, matchDetails.scorePlayer2);\n    }\n\n    // Get the round of a match by its index\n    function getMatchRound(uint tournamentIndex, uint matchIndex) public view returns (string memory) {\n        return tournaments[tournamentIndex].matches[matchIndex].round;\n    }\n\n    // Get the winner of a match by its index\n    function getMatchWinner(uint tournamentIndex, uint matchIndex) public view returns (string memory) {\n        return tournaments[tournamentIndex].matches[matchIndex].winner;\n    }\n\n\n    //Player getters\n\n    // Get player name by tournament index and player index\n    function getPlayerName(uint tournamentIndex, uint playerIndex) public view returns (string memory) {\n        return tournaments[tournamentIndex].contenders[playerIndex].name;\n    }\n\n    // Get player elo by tournament index and player index\n    function getPlayerElo(uint tournamentIndex, uint playerIndex) public view returns (uint) {\n        return tournaments[tournamentIndex].contenders[playerIndex].elo;\n    }\n\n    // Get player index by name in a given tournament\n    function getPlayerIndexByName(uint tournamentIndex, string memory playerName) public view returns (uint) {\n        Player[] memory players = tournaments[tournamentIndex].contenders;\n        for (uint i = 0; i < players.length; i++) {\n            if (keccak256(bytes(players[i].name)) == keccak256(bytes(playerName))) {\n                return i;\n            }\n        }\n        revert(\"Player not found in the tournament\");\n    }\n\n  \n\n    function getTournamentIndex(string memory tournamentName) public view returns (int) {\n        for (uint i = 0; i < tournaments.length; i++) {\n            if (keccak256(bytes(tournaments[i].TournamentName)) == keccak256(bytes(tournamentName))) {\n                return int(i);\n            }\n        }\n        return -1;\n    }\n\n  //  SETTERSTournament setters\n\n    // Setter for adding a new tournament\n\n    function addTournament(string memory newName) public {\n        Tournament storage p = tournaments.push();\n        p.TournamentName = newName;\n        p.pending = true;\n        p.started = false;\n    }\n\n    function addPlayer(uint tournamentIndex, string memory newName, uint newElo) public {\n        Player storage p = tournaments[tournamentIndex].contenders.push();\n        p.name = newName;\n        p.elo = newElo;\n    }\n\n    // // Setter for adding a new match\n    function addMatch(uint tournamentIndex, string memory player1Name, string memory player2Name, uint newscorePlayer1, uint newscorePlayer2, string memory newround, string memory newwinner) public {\n        Player memory player1;\n        Player memory player2;\n        uint player1Index;\n        uint player2Index;\n        for (uint i = 0; i < tournaments[tournamentIndex].contenders.length; i++) {\n            if (keccak256(bytes(tournaments[tournamentIndex].contenders[i].name)) == keccak256(bytes(player1Name))) {\n                player1 = tournaments[tournamentIndex].contenders[i];\n                player1Index = i;\n            }\n            if (keccak256(bytes(tournaments[tournamentIndex].contenders[i].name)) == keccak256(bytes(player2Name))) {\n                player2 = tournaments[tournamentIndex].contenders[i];\n                player2Index = i;\n            }\n        }\n\n        Match storage newMatch = tournaments[tournamentIndex].matches.push();\n        newMatch.player1 = player1;\n        newMatch.player2 = player2;\n        newMatch.scorePlayer1 = newscorePlayer1;\n        newMatch.scorePlayer2 = newscorePlayer2;\n        newMatch.round = newround;\n        newMatch.winner = newwinner;\n        tournaments[tournamentIndex].started = true;\n    }\n\n\n\n    // Setter for updating tournament winner\n    function setTournamentWinner(uint tournamentIndex, string memory newWinner) public {\n        tournaments[tournamentIndex].winner = newWinner;\n    }\n\n    // Setter for updating tournament pending status\n    function setTournamentPending(uint tournamentIndex, bool isPending) public {\n        tournaments[tournamentIndex].pending = isPending;\n    }\n\n    // Setter for updating tournament started status\n    function setTournamentStarted(uint tournamentIndex, bool isStarted) public {\n        tournaments[tournamentIndex].started = isStarted;\n    }\n}\n",
  "sourcePath": "/app/blockchain/contracts/TournamentRegistry.sol",
  "compiler": {
    "name": "solc",
    "version": "0.8.0+commit.c7dfd78e.Emscripten.clang"
  },
  "schemaVersion": "3.4.16",
  "updatedAt": "2024-04-08T16:10:16.129Z",
  "networkType": "ethereum",
  "devdoc": {
    "kind": "dev",
    "methods": {},
    "version": 1
  },
  "userdoc": {
    "kind": "user",
    "methods": {},
    "version": 1
  }
}